{
  "contractName": "GCoin",
  "abi": [
    {
      "inputs": [
        {
          "internalType": "address",
          "name": "_stableCoin",
          "type": "address"
        },
        {
          "internalType": "address",
          "name": "_stableCoinPriceFeed",
          "type": "address"
        }
      ],
      "stateMutability": "nonpayable",
      "type": "constructor"
    },
    {
      "anonymous": false,
      "inputs": [
        {
          "indexed": true,
          "internalType": "address",
          "name": "owner",
          "type": "address"
        },
        {
          "indexed": true,
          "internalType": "address",
          "name": "spender",
          "type": "address"
        },
        {
          "indexed": false,
          "internalType": "uint256",
          "name": "value",
          "type": "uint256"
        }
      ],
      "name": "Approval",
      "type": "event"
    },
    {
      "anonymous": false,
      "inputs": [
        {
          "indexed": true,
          "internalType": "address",
          "name": "previousOwner",
          "type": "address"
        },
        {
          "indexed": true,
          "internalType": "address",
          "name": "newOwner",
          "type": "address"
        }
      ],
      "name": "OwnershipTransferred",
      "type": "event"
    },
    {
      "anonymous": false,
      "inputs": [
        {
          "indexed": true,
          "internalType": "address",
          "name": "from",
          "type": "address"
        },
        {
          "indexed": true,
          "internalType": "address",
          "name": "to",
          "type": "address"
        },
        {
          "indexed": false,
          "internalType": "uint256",
          "name": "value",
          "type": "uint256"
        }
      ],
      "name": "Transfer",
      "type": "event"
    },
    {
      "inputs": [
        {
          "internalType": "address",
          "name": "owner",
          "type": "address"
        },
        {
          "internalType": "address",
          "name": "spender",
          "type": "address"
        }
      ],
      "name": "allowance",
      "outputs": [
        {
          "internalType": "uint256",
          "name": "",
          "type": "uint256"
        }
      ],
      "stateMutability": "view",
      "type": "function"
    },
    {
      "inputs": [
        {
          "internalType": "address",
          "name": "spender",
          "type": "address"
        },
        {
          "internalType": "uint256",
          "name": "amount",
          "type": "uint256"
        }
      ],
      "name": "approve",
      "outputs": [
        {
          "internalType": "bool",
          "name": "",
          "type": "bool"
        }
      ],
      "stateMutability": "nonpayable",
      "type": "function"
    },
    {
      "inputs": [
        {
          "internalType": "address",
          "name": "account",
          "type": "address"
        }
      ],
      "name": "balanceOf",
      "outputs": [
        {
          "internalType": "uint256",
          "name": "",
          "type": "uint256"
        }
      ],
      "stateMutability": "view",
      "type": "function"
    },
    {
      "inputs": [],
      "name": "decimals",
      "outputs": [
        {
          "internalType": "uint8",
          "name": "",
          "type": "uint8"
        }
      ],
      "stateMutability": "view",
      "type": "function"
    },
    {
      "inputs": [
        {
          "internalType": "address",
          "name": "spender",
          "type": "address"
        },
        {
          "internalType": "uint256",
          "name": "subtractedValue",
          "type": "uint256"
        }
      ],
      "name": "decreaseAllowance",
      "outputs": [
        {
          "internalType": "bool",
          "name": "",
          "type": "bool"
        }
      ],
      "stateMutability": "nonpayable",
      "type": "function"
    },
    {
      "inputs": [
        {
          "internalType": "address",
          "name": "",
          "type": "address"
        }
      ],
      "name": "discountFactors",
      "outputs": [
        {
          "internalType": "uint256",
          "name": "",
          "type": "uint256"
        }
      ],
      "stateMutability": "view",
      "type": "function"
    },
    {
      "inputs": [],
      "name": "gcoinValue",
      "outputs": [
        {
          "internalType": "uint256",
          "name": "",
          "type": "uint256"
        }
      ],
      "stateMutability": "view",
      "type": "function"
    },
    {
      "inputs": [
        {
          "internalType": "address",
          "name": "spender",
          "type": "address"
        },
        {
          "internalType": "uint256",
          "name": "addedValue",
          "type": "uint256"
        }
      ],
      "name": "increaseAllowance",
      "outputs": [
        {
          "internalType": "bool",
          "name": "",
          "type": "bool"
        }
      ],
      "stateMutability": "nonpayable",
      "type": "function"
    },
    {
      "inputs": [],
      "name": "mintingFee",
      "outputs": [
        {
          "internalType": "uint256",
          "name": "",
          "type": "uint256"
        }
      ],
      "stateMutability": "view",
      "type": "function"
    },
    {
      "inputs": [],
      "name": "name",
      "outputs": [
        {
          "internalType": "string",
          "name": "",
          "type": "string"
        }
      ],
      "stateMutability": "view",
      "type": "function"
    },
    {
      "inputs": [],
      "name": "owner",
      "outputs": [
        {
          "internalType": "address",
          "name": "",
          "type": "address"
        }
      ],
      "stateMutability": "view",
      "type": "function"
    },
    {
      "inputs": [
        {
          "internalType": "address",
          "name": "",
          "type": "address"
        }
      ],
      "name": "priceFeeds",
      "outputs": [
        {
          "internalType": "contract AggregatorV3Interface",
          "name": "",
          "type": "address"
        }
      ],
      "stateMutability": "view",
      "type": "function"
    },
    {
      "inputs": [],
      "name": "renounceOwnership",
      "outputs": [],
      "stateMutability": "nonpayable",
      "type": "function"
    },
    {
      "inputs": [],
      "name": "stableCoin",
      "outputs": [
        {
          "internalType": "contract ERC20",
          "name": "",
          "type": "address"
        }
      ],
      "stateMutability": "view",
      "type": "function"
    },
    {
      "inputs": [],
      "name": "stableCoinDecimals",
      "outputs": [
        {
          "internalType": "uint256",
          "name": "",
          "type": "uint256"
        }
      ],
      "stateMutability": "view",
      "type": "function"
    },
    {
      "inputs": [],
      "name": "symbol",
      "outputs": [
        {
          "internalType": "string",
          "name": "",
          "type": "string"
        }
      ],
      "stateMutability": "view",
      "type": "function"
    },
    {
      "inputs": [],
      "name": "totalSupply",
      "outputs": [
        {
          "internalType": "uint256",
          "name": "",
          "type": "uint256"
        }
      ],
      "stateMutability": "view",
      "type": "function"
    },
    {
      "inputs": [
        {
          "internalType": "address",
          "name": "to",
          "type": "address"
        },
        {
          "internalType": "uint256",
          "name": "amount",
          "type": "uint256"
        }
      ],
      "name": "transfer",
      "outputs": [
        {
          "internalType": "bool",
          "name": "",
          "type": "bool"
        }
      ],
      "stateMutability": "nonpayable",
      "type": "function"
    },
    {
      "inputs": [
        {
          "internalType": "address",
          "name": "from",
          "type": "address"
        },
        {
          "internalType": "address",
          "name": "to",
          "type": "address"
        },
        {
          "internalType": "uint256",
          "name": "amount",
          "type": "uint256"
        }
      ],
      "name": "transferFrom",
      "outputs": [
        {
          "internalType": "bool",
          "name": "",
          "type": "bool"
        }
      ],
      "stateMutability": "nonpayable",
      "type": "function"
    },
    {
      "inputs": [
        {
          "internalType": "address",
          "name": "newOwner",
          "type": "address"
        }
      ],
      "name": "transferOwnership",
      "outputs": [],
      "stateMutability": "nonpayable",
      "type": "function"
    },
    {
      "inputs": [
        {
          "internalType": "address",
          "name": "token",
          "type": "address"
        },
        {
          "internalType": "address",
          "name": "priceFeed",
          "type": "address"
        }
      ],
      "name": "addTokenPriceFeed",
      "outputs": [],
      "stateMutability": "nonpayable",
      "type": "function"
    },
    {
      "inputs": [
        {
          "internalType": "address",
          "name": "token",
          "type": "address"
        },
        {
          "internalType": "uint256",
          "name": "discount",
          "type": "uint256"
        }
      ],
      "name": "setDiscountFactor",
      "outputs": [],
      "stateMutability": "nonpayable",
      "type": "function"
    },
    {
      "inputs": [
        {
          "internalType": "uint256",
          "name": "usdcAmount",
          "type": "uint256"
        }
      ],
      "name": "getGCoinOutputFromStable",
      "outputs": [
        {
          "internalType": "uint256",
          "name": "",
          "type": "uint256"
        }
      ],
      "stateMutability": "view",
      "type": "function"
    },
    {
      "inputs": [
        {
          "internalType": "uint256",
          "name": "amount",
          "type": "uint256"
        }
      ],
      "name": "stableCoinToGCoin",
      "outputs": [],
      "stateMutability": "nonpayable",
      "type": "function"
    },
    {
      "inputs": [
        {
          "internalType": "uint256",
          "name": "amount",
          "type": "uint256"
        },
        {
          "internalType": "address",
          "name": "token",
          "type": "address"
        }
      ],
      "name": "tokenToGCoin",
      "outputs": [],
      "stateMutability": "payable",
      "type": "function"
    },
    {
      "inputs": [],
      "name": "getGCoinValue",
      "outputs": [
        {
          "internalType": "uint256",
          "name": "",
          "type": "uint256"
        }
      ],
      "stateMutability": "view",
      "type": "function"
    },
    {
      "inputs": [],
      "name": "updateGCoinValue",
      "outputs": [],
      "stateMutability": "nonpayable",
      "type": "function"
    },
    {
      "inputs": [
        {
          "internalType": "address",
          "name": "to",
          "type": "address"
        },
        {
          "internalType": "uint256",
          "name": "amount",
          "type": "uint256"
        }
      ],
      "name": "mint",
      "outputs": [],
      "stateMutability": "nonpayable",
      "type": "function"
    },
    {
      "inputs": [
        {
          "internalType": "address",
          "name": "from",
          "type": "address"
        },
        {
          "internalType": "uint256",
          "name": "amount",
          "type": "uint256"
        }
      ],
      "name": "burn",
      "outputs": [],
      "stateMutability": "nonpayable",
      "type": "function"
    }
  ],
  "bytecode": "0x608060405260016008553480156200001657600080fd5b50604051620036453803806200364583398181016040528101906200003c919062000364565b6040518060400160405280600581526020017f47436f696e0000000000000000000000000000000000000000000000000000008152506040518060400160405280600281526020017f47430000000000000000000000000000000000000000000000000000000000008152508160039081620000b9919062000625565b508060049081620000cb919062000625565b505050620000ee620000e26200022c60201b60201c565b6200023460201b60201c565b81600760006101000a81548173ffffffffffffffffffffffffffffffffffffffff021916908373ffffffffffffffffffffffffffffffffffffffff16021790555080600660006101000a81548173ffffffffffffffffffffffffffffffffffffffff021916908373ffffffffffffffffffffffffffffffffffffffff160217905550600760009054906101000a900473ffffffffffffffffffffffffffffffffffffffff1673ffffffffffffffffffffffffffffffffffffffff1663313ce5676040518163ffffffff1660e01b8152600401602060405180830381865afa158015620001de573d6000803e3d6000fd5b505050506040513d601f19601f820116820180604052508101906200020491906200074a565b60ff16600a620002159190620008ff565b600981905550600954600a81905550505062000950565b600033905090565b6000600560009054906101000a900473ffffffffffffffffffffffffffffffffffffffff16905081600560006101000a81548173ffffffffffffffffffffffffffffffffffffffff021916908373ffffffffffffffffffffffffffffffffffffffff1602179055508173ffffffffffffffffffffffffffffffffffffffff168173ffffffffffffffffffffffffffffffffffffffff167f8be0079c531659141344cd1fd0a4f28419497f9722a3daafe3b4186f6b6457e060405160405180910390a35050565b600080fd5b600073ffffffffffffffffffffffffffffffffffffffff82169050919050565b60006200032c82620002ff565b9050919050565b6200033e816200031f565b81146200034a57600080fd5b50565b6000815190506200035e8162000333565b92915050565b600080604083850312156200037e576200037d620002fa565b5b60006200038e858286016200034d565b9250506020620003a1858286016200034d565b9150509250929050565b600081519050919050565b7f4e487b7100000000000000000000000000000000000000000000000000000000600052604160045260246000fd5b7f4e487b7100000000000000000000000000000000000000000000000000000000600052602260045260246000fd5b600060028204905060018216806200042d57607f821691505b602082108103620004435762000442620003e5565b5b50919050565b60008190508160005260206000209050919050565b60006020601f8301049050919050565b600082821b905092915050565b600060088302620004ad7fffffffffffffffffffffffffffffffffffffffffffffffffffffffffffffffff826200046e565b620004b986836200046e565b95508019841693508086168417925050509392505050565b6000819050919050565b6000819050919050565b60006200050662000500620004fa84620004d1565b620004db565b620004d1565b9050919050565b6000819050919050565b6200052283620004e5565b6200053a62000531826200050d565b8484546200047b565b825550505050565b600090565b6200055162000542565b6200055e81848462000517565b505050565b5b8181101562000586576200057a60008262000547565b60018101905062000564565b5050565b601f821115620005d5576200059f8162000449565b620005aa846200045e565b81016020851015620005ba578190505b620005d2620005c9856200045e565b83018262000563565b50505b505050565b600082821c905092915050565b6000620005fa60001984600802620005da565b1980831691505092915050565b6000620006158383620005e7565b9150826002028217905092915050565b6200063082620003ab565b67ffffffffffffffff8111156200064c576200064b620003b6565b5b62000658825462000414565b620006658282856200058a565b600060209050601f8311600181146200069d576000841562000688578287015190505b62000694858262000607565b86555062000704565b601f198416620006ad8662000449565b60005b82811015620006d757848901518255600182019150602085019450602081019050620006b0565b86831015620006f75784890151620006f3601f891682620005e7565b8355505b6001600288020188555050505b505050505050565b600060ff82169050919050565b62000724816200070c565b81146200073057600080fd5b50565b600081519050620007448162000719565b92915050565b600060208284031215620007635762000762620002fa565b5b6000620007738482850162000733565b91505092915050565b7f4e487b7100000000000000000000000000000000000000000000000000000000600052601160045260246000fd5b60008160011c9050919050565b6000808291508390505b60018511156200080a57808604811115620007e257620007e16200077c565b5b6001851615620007f25780820291505b80810290506200080285620007ab565b9450620007c2565b94509492505050565b600082620008255760019050620008f8565b81620008355760009050620008f8565b81600181146200084e576002811462000859576200088f565b6001915050620008f8565b60ff8411156200086e576200086d6200077c565b5b8360020a9150848211156200088857620008876200077c565b5b50620008f8565b5060208310610133831016604e8410600b8410161715620008c95782820a905083811115620008c357620008c26200077c565b5b620008f8565b620008d88484846001620007b8565b92509050818404811115620008f257620008f16200077c565b5b81810290505b9392505050565b60006200090c82620004d1565b91506200091983620004d1565b9250620009487fffffffffffffffffffffffffffffffffffffffffffffffffffffffffffffffff848462000813565b905092915050565b612ce580620009606000396000f3fe6080604052600436106101c25760003560e01c8063613e7871116100f75780639dc29fac11610095578063d2535c2d11610064578063d2535c2d1461065d578063dd62ed3e14610686578063f2fde38b146106c3578063f8913423146106ec576101c2565b80639dc29fac1461057d5780639dcb511a146105a6578063a457c2d7146105e3578063a9059cbb14610620576101c2565b80638da5cb5b116100d15780638da5cb5b146104d35780638e23cc86146104fe57806395d89b4114610527578063992642e514610552576101c2565b8063613e78711461044257806370a082311461047f578063715018a6146104bc576101c2565b8063313ce567116101645780633a47355a1161013e5780633a47355a146103a757806340c10f19146103d2578063471468cd146103fb5780635a64ad9514610417576101c2565b8063313ce5671461032857806335bbba8714610353578063395093511461036a576101c2565b8063166ee767116101a0578063166ee7671461026c57806318160ddd1461029557806323b872dd146102c057806324e1c98a146102fd576101c2565b806306fdde03146101c7578063095ea7b3146101f25780631643e0f51461022f575b600080fd5b3480156101d357600080fd5b506101dc610717565b6040516101e99190611e4b565b60405180910390f35b3480156101fe57600080fd5b5061021960048036038101906102149190611f06565b6107a9565b6040516102269190611f61565b60405180910390f35b34801561023b57600080fd5b5061025660048036038101906102519190611f7c565b6107cc565b6040516102639190611fb8565b60405180910390f35b34801561027857600080fd5b50610293600480360381019061028e9190611fd3565b610836565b005b3480156102a157600080fd5b506102aa6108c0565b6040516102b79190611fb8565b60405180910390f35b3480156102cc57600080fd5b506102e760048036038101906102e29190612013565b6108ca565b6040516102f49190611f61565b60405180910390f35b34801561030957600080fd5b506103126108f9565b60405161031f9190611fb8565b60405180910390f35b34801561033457600080fd5b5061033d610903565b60405161034a9190612082565b60405180910390f35b34801561035f57600080fd5b5061036861090c565b005b34801561037657600080fd5b50610391600480360381019061038c9190611f06565b61094d565b60405161039e9190611f61565b60405180910390f35b3480156103b357600080fd5b506103bc610984565b6040516103c99190611fb8565b60405180910390f35b3480156103de57600080fd5b506103f960048036038101906103f49190611f06565b61098a565b005b6104156004803603810190610410919061209d565b6109a0565b005b34801561042357600080fd5b5061042c610d60565b6040516104399190611fb8565b60405180910390f35b34801561044e57600080fd5b50610469600480360381019061046491906120dd565b610d66565b6040516104769190611fb8565b60405180910390f35b34801561048b57600080fd5b506104a660048036038101906104a191906120dd565b610d7e565b6040516104b39190611fb8565b60405180910390f35b3480156104c857600080fd5b506104d1610dc6565b005b3480156104df57600080fd5b506104e8610dda565b6040516104f59190612119565b60405180910390f35b34801561050a57600080fd5b5061052560048036038101906105209190611f7c565b610e04565b005b34801561053357600080fd5b5061053c610ffb565b6040516105499190611e4b565b60405180910390f35b34801561055e57600080fd5b5061056761108d565b6040516105749190612193565b60405180910390f35b34801561058957600080fd5b506105a4600480360381019061059f9190611f06565b6110b3565b005b3480156105b257600080fd5b506105cd60048036038101906105c891906120dd565b6110c9565b6040516105da91906121cf565b60405180910390f35b3480156105ef57600080fd5b5061060a60048036038101906106059190611f06565b6110fc565b6040516106179190611f61565b60405180910390f35b34801561062c57600080fd5b5061064760048036038101906106429190611f06565b611173565b6040516106549190611f61565b60405180910390f35b34801561066957600080fd5b50610684600480360381019061067f9190611f06565b611196565b005b34801561069257600080fd5b506106ad60048036038101906106a89190611fd3565b6111e6565b6040516106ba9190611fb8565b60405180910390f35b3480156106cf57600080fd5b506106ea60048036038101906106e591906120dd565b61126d565b005b3480156106f857600080fd5b506107016112f0565b60405161070e9190611fb8565b60405180910390f35b60606003805461072690612219565b80601f016020809104026020016040519081016040528092919081815260200182805461075290612219565b801561079f5780601f106107745761010080835404028352916020019161079f565b820191906000526020600020905b81548152906001019060200180831161078257829003601f168201915b5050505050905090565b6000806107b46112f6565b90506107c18185856112fe565b600191505092915050565b60008061082b60085460646107e19190612279565b61081d606461080f600a546108016009548a6114c790919063ffffffff16565b6114dd90919063ffffffff16565b6114c790919063ffffffff16565b6114dd90919063ffffffff16565b905080915050919050565b61083e6114f3565b80600b60008473ffffffffffffffffffffffffffffffffffffffff1673ffffffffffffffffffffffffffffffffffffffff16815260200190815260200160002060006101000a81548173ffffffffffffffffffffffffffffffffffffffff021916908373ffffffffffffffffffffffffffffffffffffffff1602179055505050565b6000600254905090565b6000806108d56112f6565b90506108e2858285611571565b6108ed8585856115fd565b60019150509392505050565b6000600a54905090565b60006012905090565b6109146114f3565b6000610941600760009054906101000a900473ffffffffffffffffffffffffffffffffffffffff16611873565b905080600a8190555050565b6000806109586112f6565b905061097981858561096a85896111e6565b6109749190612279565b6112fe565b600191505092915050565b60095481565b6109926114f3565b61099c82826119c8565b5050565b600073ffffffffffffffffffffffffffffffffffffffff168173ffffffffffffffffffffffffffffffffffffffff1603610afb57600034905060006109e56000611873565b90506000610a10600954610a0284866114c790919063ffffffff16565b6114dd90919063ffffffff16565b90506000610a856064610a77600c60008073ffffffffffffffffffffffffffffffffffffffff1673ffffffffffffffffffffffffffffffffffffffff168152602001908152602001600020546064610a6891906122ad565b856114c790919063ffffffff16565b6114dd90919063ffffffff16565b90506000610ae56008546064610a9b9190612279565b610ad76064610ac9600a54610abb600954896114c790919063ffffffff16565b6114dd90919063ffffffff16565b6114c790919063ffffffff16565b6114dd90919063ffffffff16565b9050610af133826119c8565b5050505050610d5c565b60008173ffffffffffffffffffffffffffffffffffffffff1663dd62ed3e33306040518363ffffffff1660e01b8152600401610b389291906122e1565b602060405180830381865afa158015610b55573d6000803e3d6000fd5b505050506040513d601f19601f82011682018060405250810190610b79919061231f565b905082811015610bbe576040517f08c379a0000000000000000000000000000000000000000000000000000000008152600401610bb590612398565b60405180910390fd5b6000610bc983611873565b90506000610bf4600954610be684886114c790919063ffffffff16565b6114dd90919063ffffffff16565b90506000610c696064610c5b600c60008973ffffffffffffffffffffffffffffffffffffffff1673ffffffffffffffffffffffffffffffffffffffff168152602001908152602001600020546064610c4c91906122ad565b856114c790919063ffffffff16565b6114dd90919063ffffffff16565b90506000610cc96008546064610c7f9190612279565b610cbb6064610cad600a54610c9f600954896114c790919063ffffffff16565b6114dd90919063ffffffff16565b6114c790919063ffffffff16565b6114dd90919063ffffffff16565b90508573ffffffffffffffffffffffffffffffffffffffff166323b872dd33308a6040518463ffffffff1660e01b8152600401610d08939291906123b8565b6020604051808303816000875af1158015610d27573d6000803e3d6000fd5b505050506040513d601f19601f82011682018060405250810190610d4b919061241b565b50610d5633826119c8565b50505050505b5050565b60085481565b600c6020528060005260406000206000915090505481565b60008060008373ffffffffffffffffffffffffffffffffffffffff1673ffffffffffffffffffffffffffffffffffffffff168152602001908152602001600020549050919050565b610dce6114f3565b610dd86000611b1e565b565b6000600560009054906101000a900473ffffffffffffffffffffffffffffffffffffffff16905090565b6000600760009054906101000a900473ffffffffffffffffffffffffffffffffffffffff1673ffffffffffffffffffffffffffffffffffffffff1663dd62ed3e33306040518363ffffffff1660e01b8152600401610e639291906122e1565b602060405180830381865afa158015610e80573d6000803e3d6000fd5b505050506040513d601f19601f82011682018060405250810190610ea4919061231f565b905081811015610ee9576040517f08c379a0000000000000000000000000000000000000000000000000000000008152600401610ee090612398565b60405180910390fd5b6000610f476008546064610efd9190612279565b610f396064610f2b600a54610f1d6009548a6114c790919063ffffffff16565b6114dd90919063ffffffff16565b6114c790919063ffffffff16565b6114dd90919063ffffffff16565b9050600760009054906101000a900473ffffffffffffffffffffffffffffffffffffffff1673ffffffffffffffffffffffffffffffffffffffff166323b872dd3330866040518463ffffffff1660e01b8152600401610fa8939291906123b8565b6020604051808303816000875af1158015610fc7573d6000803e3d6000fd5b505050506040513d601f19601f82011682018060405250810190610feb919061241b565b50610ff633826119c8565b505050565b60606004805461100a90612219565b80601f016020809104026020016040519081016040528092919081815260200182805461103690612219565b80156110835780601f1061105857610100808354040283529160200191611083565b820191906000526020600020905b81548152906001019060200180831161106657829003601f168201915b5050505050905090565b600760009054906101000a900473ffffffffffffffffffffffffffffffffffffffff1681565b6110bb6114f3565b6110c58282611be4565b5050565b600b6020528060005260406000206000915054906101000a900473ffffffffffffffffffffffffffffffffffffffff1681565b6000806111076112f6565b9050600061111582866111e6565b90508381101561115a576040517f08c379a0000000000000000000000000000000000000000000000000000000008152600401611151906124ba565b60405180910390fd5b61116782868684036112fe565b60019250505092915050565b60008061117e6112f6565b905061118b8185856115fd565b600191505092915050565b61119e6114f3565b80600c60008473ffffffffffffffffffffffffffffffffffffffff1673ffffffffffffffffffffffffffffffffffffffff168152602001908152602001600020819055505050565b6000600160008473ffffffffffffffffffffffffffffffffffffffff1673ffffffffffffffffffffffffffffffffffffffff16815260200190815260200160002060008373ffffffffffffffffffffffffffffffffffffffff1673ffffffffffffffffffffffffffffffffffffffff16815260200190815260200160002054905092915050565b6112756114f3565b600073ffffffffffffffffffffffffffffffffffffffff168173ffffffffffffffffffffffffffffffffffffffff16036112e4576040517f08c379a00000000000000000000000000000000000000000000000000000000081526004016112db9061254c565b60405180910390fd5b6112ed81611b1e565b50565b600a5481565b600033905090565b600073ffffffffffffffffffffffffffffffffffffffff168373ffffffffffffffffffffffffffffffffffffffff160361136d576040517f08c379a0000000000000000000000000000000000000000000000000000000008152600401611364906125de565b60405180910390fd5b600073ffffffffffffffffffffffffffffffffffffffff168273ffffffffffffffffffffffffffffffffffffffff16036113dc576040517f08c379a00000000000000000000000000000000000000000000000000000000081526004016113d390612670565b60405180910390fd5b80600160008573ffffffffffffffffffffffffffffffffffffffff1673ffffffffffffffffffffffffffffffffffffffff16815260200190815260200160002060008473ffffffffffffffffffffffffffffffffffffffff1673ffffffffffffffffffffffffffffffffffffffff168152602001908152602001600020819055508173ffffffffffffffffffffffffffffffffffffffff168373ffffffffffffffffffffffffffffffffffffffff167f8c5be1e5ebec7d5bd14f71427d1e84f3dd0314c0f7b2291e5b200ac8c7c3b925836040516114ba9190611fb8565b60405180910390a3505050565b600081836114d59190612690565b905092915050565b600081836114eb9190612701565b905092915050565b6114fb6112f6565b73ffffffffffffffffffffffffffffffffffffffff16611519610dda565b73ffffffffffffffffffffffffffffffffffffffff161461156f576040517f08c379a00000000000000000000000000000000000000000000000000000000081526004016115669061277e565b60405180910390fd5b565b600061157d84846111e6565b90507fffffffffffffffffffffffffffffffffffffffffffffffffffffffffffffffff81146115f757818110156115e9576040517f08c379a00000000000000000000000000000000000000000000000000000000081526004016115e0906127ea565b60405180910390fd5b6115f684848484036112fe565b5b50505050565b600073ffffffffffffffffffffffffffffffffffffffff168373ffffffffffffffffffffffffffffffffffffffff160361166c576040517f08c379a00000000000000000000000000000000000000000000000000000000081526004016116639061287c565b60405180910390fd5b600073ffffffffffffffffffffffffffffffffffffffff168273ffffffffffffffffffffffffffffffffffffffff16036116db576040517f08c379a00000000000000000000000000000000000000000000000000000000081526004016116d29061290e565b60405180910390fd5b6116e6838383611db1565b60008060008573ffffffffffffffffffffffffffffffffffffffff1673ffffffffffffffffffffffffffffffffffffffff1681526020019081526020016000205490508181101561176c576040517f08c379a0000000000000000000000000000000000000000000000000000000008152600401611763906129a0565b60405180910390fd5b8181036000808673ffffffffffffffffffffffffffffffffffffffff1673ffffffffffffffffffffffffffffffffffffffff16815260200190815260200160002081905550816000808573ffffffffffffffffffffffffffffffffffffffff1673ffffffffffffffffffffffffffffffffffffffff168152602001908152602001600020600082825401925050819055508273ffffffffffffffffffffffffffffffffffffffff168473ffffffffffffffffffffffffffffffffffffffff167fddf252ad1be2c89b69c2b068fc378daa952ba7f163c4a11628f55a4df523b3ef8460405161185a9190611fb8565b60405180910390a361186d848484611db6565b50505050565b600080600b60008473ffffffffffffffffffffffffffffffffffffffff1673ffffffffffffffffffffffffffffffffffffffff16815260200190815260200160002060009054906101000a900473ffffffffffffffffffffffffffffffffffffffff169050600073ffffffffffffffffffffffffffffffffffffffff168173ffffffffffffffffffffffffffffffffffffffff1603611947576040517f08c379a000000000000000000000000000000000000000000000000000000000815260040161193e90612a0c565b60405180910390fd5b60008173ffffffffffffffffffffffffffffffffffffffff1663feaf968c6040518163ffffffff1660e01b815260040160a060405180830381865afa158015611994573d6000803e3d6000fd5b505050506040513d601f19601f820116820180604052508101906119b89190612aa4565b5050509150508092505050919050565b600073ffffffffffffffffffffffffffffffffffffffff168273ffffffffffffffffffffffffffffffffffffffff1603611a37576040517f08c379a0000000000000000000000000000000000000000000000000000000008152600401611a2e90612b6b565b60405180910390fd5b611a4360008383611db1565b8060026000828254611a559190612279565b92505081905550806000808473ffffffffffffffffffffffffffffffffffffffff1673ffffffffffffffffffffffffffffffffffffffff168152602001908152602001600020600082825401925050819055508173ffffffffffffffffffffffffffffffffffffffff16600073ffffffffffffffffffffffffffffffffffffffff167fddf252ad1be2c89b69c2b068fc378daa952ba7f163c4a11628f55a4df523b3ef83604051611b069190611fb8565b60405180910390a3611b1a60008383611db6565b5050565b6000600560009054906101000a900473ffffffffffffffffffffffffffffffffffffffff16905081600560006101000a81548173ffffffffffffffffffffffffffffffffffffffff021916908373ffffffffffffffffffffffffffffffffffffffff1602179055508173ffffffffffffffffffffffffffffffffffffffff168173ffffffffffffffffffffffffffffffffffffffff167f8be0079c531659141344cd1fd0a4f28419497f9722a3daafe3b4186f6b6457e060405160405180910390a35050565b600073ffffffffffffffffffffffffffffffffffffffff168273ffffffffffffffffffffffffffffffffffffffff1603611c53576040517f08c379a0000000000000000000000000000000000000000000000000000000008152600401611c4a90612bfd565b60405180910390fd5b611c5f82600083611db1565b60008060008473ffffffffffffffffffffffffffffffffffffffff1673ffffffffffffffffffffffffffffffffffffffff16815260200190815260200160002054905081811015611ce5576040517f08c379a0000000000000000000000000000000000000000000000000000000008152600401611cdc90612c8f565b60405180910390fd5b8181036000808573ffffffffffffffffffffffffffffffffffffffff1673ffffffffffffffffffffffffffffffffffffffff1681526020019081526020016000208190555081600260008282540392505081905550600073ffffffffffffffffffffffffffffffffffffffff168373ffffffffffffffffffffffffffffffffffffffff167fddf252ad1be2c89b69c2b068fc378daa952ba7f163c4a11628f55a4df523b3ef84604051611d989190611fb8565b60405180910390a3611dac83600084611db6565b505050565b505050565b505050565b600081519050919050565b600082825260208201905092915050565b60005b83811015611df5578082015181840152602081019050611dda565b60008484015250505050565b6000601f19601f8301169050919050565b6000611e1d82611dbb565b611e278185611dc6565b9350611e37818560208601611dd7565b611e4081611e01565b840191505092915050565b60006020820190508181036000830152611e658184611e12565b905092915050565b600080fd5b600073ffffffffffffffffffffffffffffffffffffffff82169050919050565b6000611e9d82611e72565b9050919050565b611ead81611e92565b8114611eb857600080fd5b50565b600081359050611eca81611ea4565b92915050565b6000819050919050565b611ee381611ed0565b8114611eee57600080fd5b50565b600081359050611f0081611eda565b92915050565b60008060408385031215611f1d57611f1c611e6d565b5b6000611f2b85828601611ebb565b9250506020611f3c85828601611ef1565b9150509250929050565b60008115159050919050565b611f5b81611f46565b82525050565b6000602082019050611f766000830184611f52565b92915050565b600060208284031215611f9257611f91611e6d565b5b6000611fa084828501611ef1565b91505092915050565b611fb281611ed0565b82525050565b6000602082019050611fcd6000830184611fa9565b92915050565b60008060408385031215611fea57611fe9611e6d565b5b6000611ff885828601611ebb565b925050602061200985828601611ebb565b9150509250929050565b60008060006060848603121561202c5761202b611e6d565b5b600061203a86828701611ebb565b935050602061204b86828701611ebb565b925050604061205c86828701611ef1565b9150509250925092565b600060ff82169050919050565b61207c81612066565b82525050565b60006020820190506120976000830184612073565b92915050565b600080604083850312156120b4576120b3611e6d565b5b60006120c285828601611ef1565b92505060206120d385828601611ebb565b9150509250929050565b6000602082840312156120f3576120f2611e6d565b5b600061210184828501611ebb565b91505092915050565b61211381611e92565b82525050565b600060208201905061212e600083018461210a565b92915050565b6000819050919050565b600061215961215461214f84611e72565b612134565b611e72565b9050919050565b600061216b8261213e565b9050919050565b600061217d82612160565b9050919050565b61218d81612172565b82525050565b60006020820190506121a86000830184612184565b92915050565b60006121b982612160565b9050919050565b6121c9816121ae565b82525050565b60006020820190506121e460008301846121c0565b92915050565b7f4e487b7100000000000000000000000000000000000000000000000000000000600052602260045260246000fd5b6000600282049050600182168061223157607f821691505b602082108103612244576122436121ea565b5b50919050565b7f4e487b7100000000000000000000000000000000000000000000000000000000600052601160045260246000fd5b600061228482611ed0565b915061228f83611ed0565b92508282019050808211156122a7576122a661224a565b5b92915050565b60006122b882611ed0565b91506122c383611ed0565b92508282039050818111156122db576122da61224a565b5b92915050565b60006040820190506122f6600083018561210a565b612303602083018461210a565b9392505050565b60008151905061231981611eda565b92915050565b60006020828403121561233557612334611e6d565b5b60006123438482850161230a565b91505092915050565b7f416d6f756e74206e6f7420616c6c6f7765640000000000000000000000000000600082015250565b6000612382601283611dc6565b915061238d8261234c565b602082019050919050565b600060208201905081810360008301526123b181612375565b9050919050565b60006060820190506123cd600083018661210a565b6123da602083018561210a565b6123e76040830184611fa9565b949350505050565b6123f881611f46565b811461240357600080fd5b50565b600081519050612415816123ef565b92915050565b60006020828403121561243157612430611e6d565b5b600061243f84828501612406565b91505092915050565b7f45524332303a2064656372656173656420616c6c6f77616e63652062656c6f7760008201527f207a65726f000000000000000000000000000000000000000000000000000000602082015250565b60006124a4602583611dc6565b91506124af82612448565b604082019050919050565b600060208201905081810360008301526124d381612497565b9050919050565b7f4f776e61626c653a206e6577206f776e657220697320746865207a65726f206160008201527f6464726573730000000000000000000000000000000000000000000000000000602082015250565b6000612536602683611dc6565b9150612541826124da565b604082019050919050565b6000602082019050818103600083015261256581612529565b9050919050565b7f45524332303a20617070726f76652066726f6d20746865207a65726f2061646460008201527f7265737300000000000000000000000000000000000000000000000000000000602082015250565b60006125c8602483611dc6565b91506125d38261256c565b604082019050919050565b600060208201905081810360008301526125f7816125bb565b9050919050565b7f45524332303a20617070726f766520746f20746865207a65726f20616464726560008201527f7373000000000000000000000000000000000000000000000000000000000000602082015250565b600061265a602283611dc6565b9150612665826125fe565b604082019050919050565b600060208201905081810360008301526126898161264d565b9050919050565b600061269b82611ed0565b91506126a683611ed0565b92508282026126b481611ed0565b915082820484148315176126cb576126ca61224a565b5b5092915050565b7f4e487b7100000000000000000000000000000000000000000000000000000000600052601260045260246000fd5b600061270c82611ed0565b915061271783611ed0565b925082612727576127266126d2565b5b828204905092915050565b7f4f776e61626c653a2063616c6c6572206973206e6f7420746865206f776e6572600082015250565b6000612768602083611dc6565b915061277382612732565b602082019050919050565b600060208201905081810360008301526127978161275b565b9050919050565b7f45524332303a20696e73756666696369656e7420616c6c6f77616e6365000000600082015250565b60006127d4601d83611dc6565b91506127df8261279e565b602082019050919050565b60006020820190508181036000830152612803816127c7565b9050919050565b7f45524332303a207472616e736665722066726f6d20746865207a65726f20616460008201527f6472657373000000000000000000000000000000000000000000000000000000602082015250565b6000612866602583611dc6565b91506128718261280a565b604082019050919050565b6000602082019050818103600083015261289581612859565b9050919050565b7f45524332303a207472616e7366657220746f20746865207a65726f206164647260008201527f6573730000000000000000000000000000000000000000000000000000000000602082015250565b60006128f8602383611dc6565b91506129038261289c565b604082019050919050565b60006020820190508181036000830152612927816128eb565b9050919050565b7f45524332303a207472616e7366657220616d6f756e742065786365656473206260008201527f616c616e63650000000000000000000000000000000000000000000000000000602082015250565b600061298a602683611dc6565b91506129958261292e565b604082019050919050565b600060208201905081810360008301526129b98161297d565b9050919050565b7f50726963652066656564206e6f7420666f756e6420666f7220746f6b656e0000600082015250565b60006129f6601e83611dc6565b9150612a01826129c0565b602082019050919050565b60006020820190508181036000830152612a25816129e9565b9050919050565b600069ffffffffffffffffffff82169050919050565b612a4b81612a2c565b8114612a5657600080fd5b50565b600081519050612a6881612a42565b92915050565b6000819050919050565b612a8181612a6e565b8114612a8c57600080fd5b50565b600081519050612a9e81612a78565b92915050565b600080600080600060a08688031215612ac057612abf611e6d565b5b6000612ace88828901612a59565b9550506020612adf88828901612a8f565b9450506040612af08882890161230a565b9350506060612b018882890161230a565b9250506080612b1288828901612a59565b9150509295509295909350565b7f45524332303a206d696e7420746f20746865207a65726f206164647265737300600082015250565b6000612b55601f83611dc6565b9150612b6082612b1f565b602082019050919050565b60006020820190508181036000830152612b8481612b48565b9050919050565b7f45524332303a206275726e2066726f6d20746865207a65726f2061646472657360008201527f7300000000000000000000000000000000000000000000000000000000000000602082015250565b6000612be7602183611dc6565b9150612bf282612b8b565b604082019050919050565b60006020820190508181036000830152612c1681612bda565b9050919050565b7f45524332303a206275726e20616d6f756e7420657863656564732062616c616e60008201527f6365000000000000000000000000000000000000000000000000000000000000602082015250565b6000612c79602283611dc6565b9150612c8482612c1d565b604082019050919050565b60006020820190508181036000830152612ca881612c6c565b905091905056fea2646970667358221220a9faacba18a2725d1bffd34f74387a7e3cfba3ba43f1b39c9a5f5cc04be0b04464736f6c63430008130033",
  "immutableReferences": {},
  "source": "pragma solidity ^0.8.0;\n\nimport \"@openzeppelin/contracts/token/ERC20/ERC20.sol\";\nimport \"@openzeppelin/contracts/utils/math/SafeMath.sol\";\nimport \"@openzeppelin/contracts/access/Ownable.sol\";\nimport \"@chainlink/contracts/src/v0.8/interfaces/AggregatorV3Interface.sol\";\n\ncontract GCoin is ERC20, Ownable {\n\n    using SafeMath for uint256;\n\n    AggregatorV3Interface internal stableCoinPriceFeed;\n    ERC20 public stableCoin;\n\n    uint256 public mintingFee = 1; // 1% fee\n    uint256 public stableCoinDecimals;\n    uint256 public gcoinValue;\n    address constant ETHER = address(0);\n\n    mapping(address => AggregatorV3Interface) public priceFeeds;\n    mapping(address => uint256) public discountFactors;\n\n    constructor(address _stableCoin, address _stableCoinPriceFeed)\n        ERC20(\"GCoin\", \"GC\")\n    {\n        stableCoin = ERC20(_stableCoin);\n        stableCoinPriceFeed = AggregatorV3Interface(_stableCoinPriceFeed);\n        stableCoinDecimals = 10**uint256(stableCoin.decimals());\n        gcoinValue = stableCoinDecimals; // Initial value set to 1 stable coin\n    }\n\n    function addTokenPriceFeed(address token, address priceFeed)\n        public\n        onlyOwner\n    {\n        priceFeeds[token] = AggregatorV3Interface(priceFeed);\n    }\n\n    function setDiscountFactor(address token, uint256 discount)\n        public\n        onlyOwner\n    {\n        discountFactors[token] = discount;\n    }\n\n    function getLatestPrice(address token) private view returns (uint256) {\n        AggregatorV3Interface priceFeed = priceFeeds[token];\n        require(\n            address(priceFeed) != address(0),\n            \"Price feed not found for token\"\n        );\n        (, int256 price, , , ) = priceFeed.latestRoundData();\n        return uint256(price);\n    }\n\n    function getGCoinOutputFromStable(uint256 usdcAmount) public view returns (uint256) {\n        uint256 gcoinAmount = usdcAmount\n            .mul(stableCoinDecimals)\n            .div(gcoinValue)\n            .mul(100)\n            .div(100 + mintingFee);\n        return gcoinAmount;\n    }\n\n    function stableCoinToGCoin(uint256 amount) public {\n        uint256 allowance = stableCoin.allowance(msg.sender, address(this));\n        require(allowance >= amount, \"Amount not allowed\");\n\n        uint256 gcoinAmount = amount\n            .mul(stableCoinDecimals)\n            .div(gcoinValue)\n            .mul(100)\n            .div(100 + mintingFee);\n        stableCoin.transferFrom(msg.sender, address(this), amount);\n        _mint(msg.sender, gcoinAmount);\n    }\n\n    /*\n    This is really doesnt make sense, why people use other tokens to mint GCoin with 15% off?\n    If it is more like lending platform, then need to implement a bunch more to enable lending, redemption and liquidation.\n    */\n    function tokenToGCoin(uint256 amount, address token) public payable {\n        if (token == ETHER) {\n            uint256 ethAmount = msg.value;\n            uint256 ethPrice = getLatestPrice(ETHER);\n            uint256 ethAmountInStableCoin = ethAmount.mul(ethPrice).div(\n                stableCoinDecimals\n            );\n\n            uint256 discountedEthAmount = ethAmountInStableCoin\n                .mul(100 - discountFactors[ETHER])\n                .div(100);\n            uint256 gcoinAmount = discountedEthAmount\n                .mul(stableCoinDecimals)\n                .div(gcoinValue)\n                .mul(100)\n                .div(100 + mintingFee);\n            _mint(msg.sender, gcoinAmount);\n        } else {\n            uint256 allowance = ERC20(token).allowance(\n                msg.sender,\n                address(this)\n            );\n            require(allowance >= amount, \"Amount not allowed\");\n\n            uint256 tokenPrice = getLatestPrice(token);\n            uint256 tokenAmountInStableCoin = amount.mul(tokenPrice).div(\n                stableCoinDecimals\n            );\n\n            uint256 discountedTokenAmount = tokenAmountInStableCoin\n                .mul(100 - discountFactors[token])\n                .div(100);\n            uint256 gcoinAmount = discountedTokenAmount\n                .mul(stableCoinDecimals)\n                .div(gcoinValue)\n                .mul(100)\n                .div(100 + mintingFee);\n\n            ERC20(token).transferFrom(msg.sender, address(this), amount);\n            _mint(msg.sender, gcoinAmount);\n        }\n    }\n\n    function getGCoinValue() public view returns (uint256) {\n        return gcoinValue;\n    }\n\n    function updateGCoinValue() public onlyOwner {\n        uint256 chainlinkValue = getLatestPrice(address(stableCoin));\n        gcoinValue = chainlinkValue;\n    }\n\n    function mint(address to, uint256 amount) external onlyOwner {\n        _mint(to, amount);\n    }\n\n    function burn(address from, uint256 amount) external onlyOwner {\n        _burn(from, amount);\n    }\n}\n",
  "sourcePath": "/Users/zhuming0828/Documents/projects/gcoin/GCoin/contracts/GCoin.sol",
  "compiler": {
    "name": "solc",
    "version": "0.8.19+commit.7dd6d404.Emscripten.clang"
  },
  "schemaVersion": "3.4.13",
  "updatedAt": "2023-04-29T22:56:17.667Z",
  "devdoc": {
    "events": {
      "Approval(address,address,uint256)": {
        "details": "Emitted when the allowance of a `spender` for an `owner` is set by a call to {approve}. `value` is the new allowance."
      },
      "Transfer(address,address,uint256)": {
        "details": "Emitted when `value` tokens are moved from one account (`from`) to another (`to`). Note that `value` may be zero."
      }
    },
    "kind": "dev",
    "methods": {
      "allowance(address,address)": {
        "details": "See {IERC20-allowance}."
      },
      "approve(address,uint256)": {
        "details": "See {IERC20-approve}. NOTE: If `amount` is the maximum `uint256`, the allowance is not updated on `transferFrom`. This is semantically equivalent to an infinite approval. Requirements: - `spender` cannot be the zero address."
      },
      "balanceOf(address)": {
        "details": "See {IERC20-balanceOf}."
      },
      "decimals()": {
        "details": "Returns the number of decimals used to get its user representation. For example, if `decimals` equals `2`, a balance of `505` tokens should be displayed to a user as `5.05` (`505 / 10 ** 2`). Tokens usually opt for a value of 18, imitating the relationship between Ether and Wei. This is the value {ERC20} uses, unless this function is overridden; NOTE: This information is only used for _display_ purposes: it in no way affects any of the arithmetic of the contract, including {IERC20-balanceOf} and {IERC20-transfer}."
      },
      "decreaseAllowance(address,uint256)": {
        "details": "Atomically decreases the allowance granted to `spender` by the caller. This is an alternative to {approve} that can be used as a mitigation for problems described in {IERC20-approve}. Emits an {Approval} event indicating the updated allowance. Requirements: - `spender` cannot be the zero address. - `spender` must have allowance for the caller of at least `subtractedValue`."
      },
      "increaseAllowance(address,uint256)": {
        "details": "Atomically increases the allowance granted to `spender` by the caller. This is an alternative to {approve} that can be used as a mitigation for problems described in {IERC20-approve}. Emits an {Approval} event indicating the updated allowance. Requirements: - `spender` cannot be the zero address."
      },
      "name()": {
        "details": "Returns the name of the token."
      },
      "owner()": {
        "details": "Returns the address of the current owner."
      },
      "renounceOwnership()": {
        "details": "Leaves the contract without owner. It will not be possible to call `onlyOwner` functions anymore. Can only be called by the current owner. NOTE: Renouncing ownership will leave the contract without an owner, thereby removing any functionality that is only available to the owner."
      },
      "symbol()": {
        "details": "Returns the symbol of the token, usually a shorter version of the name."
      },
      "totalSupply()": {
        "details": "See {IERC20-totalSupply}."
      },
      "transfer(address,uint256)": {
        "details": "See {IERC20-transfer}. Requirements: - `to` cannot be the zero address. - the caller must have a balance of at least `amount`."
      },
      "transferFrom(address,address,uint256)": {
        "details": "See {IERC20-transferFrom}. Emits an {Approval} event indicating the updated allowance. This is not required by the EIP. See the note at the beginning of {ERC20}. NOTE: Does not update the allowance if the current allowance is the maximum `uint256`. Requirements: - `from` and `to` cannot be the zero address. - `from` must have a balance of at least `amount`. - the caller must have allowance for ``from``'s tokens of at least `amount`."
      },
      "transferOwnership(address)": {
        "details": "Transfers ownership of the contract to a new account (`newOwner`). Can only be called by the current owner."
      }
    },
    "version": 1
  },
  "userdoc": {
    "kind": "user",
    "methods": {},
    "version": 1
  }
}