{
  "contractName": "GCoin",
  "abi": [
    {
      "inputs": [],
      "stateMutability": "nonpayable",
      "type": "constructor"
    },
    {
      "anonymous": false,
      "inputs": [
        {
          "indexed": true,
          "internalType": "address",
          "name": "owner",
          "type": "address"
        },
        {
          "indexed": true,
          "internalType": "address",
          "name": "spender",
          "type": "address"
        },
        {
          "indexed": false,
          "internalType": "uint256",
          "name": "value",
          "type": "uint256"
        }
      ],
      "name": "Approval",
      "type": "event"
    },
    {
      "anonymous": false,
      "inputs": [
        {
          "indexed": true,
          "internalType": "address",
          "name": "previousOwner",
          "type": "address"
        },
        {
          "indexed": true,
          "internalType": "address",
          "name": "newOwner",
          "type": "address"
        }
      ],
      "name": "OwnershipTransferred",
      "type": "event"
    },
    {
      "anonymous": false,
      "inputs": [
        {
          "indexed": false,
          "internalType": "address",
          "name": "account",
          "type": "address"
        }
      ],
      "name": "Paused",
      "type": "event"
    },
    {
      "anonymous": false,
      "inputs": [
        {
          "indexed": true,
          "internalType": "address",
          "name": "from",
          "type": "address"
        },
        {
          "indexed": true,
          "internalType": "address",
          "name": "to",
          "type": "address"
        },
        {
          "indexed": false,
          "internalType": "uint256",
          "name": "value",
          "type": "uint256"
        }
      ],
      "name": "Transfer",
      "type": "event"
    },
    {
      "anonymous": false,
      "inputs": [
        {
          "indexed": false,
          "internalType": "address",
          "name": "account",
          "type": "address"
        }
      ],
      "name": "Unpaused",
      "type": "event"
    },
    {
      "inputs": [
        {
          "internalType": "address",
          "name": "owner",
          "type": "address"
        },
        {
          "internalType": "address",
          "name": "spender",
          "type": "address"
        }
      ],
      "name": "allowance",
      "outputs": [
        {
          "internalType": "uint256",
          "name": "",
          "type": "uint256"
        }
      ],
      "stateMutability": "view",
      "type": "function"
    },
    {
      "inputs": [
        {
          "internalType": "address",
          "name": "spender",
          "type": "address"
        },
        {
          "internalType": "uint256",
          "name": "amount",
          "type": "uint256"
        }
      ],
      "name": "approve",
      "outputs": [
        {
          "internalType": "bool",
          "name": "",
          "type": "bool"
        }
      ],
      "stateMutability": "nonpayable",
      "type": "function"
    },
    {
      "inputs": [
        {
          "internalType": "address",
          "name": "account",
          "type": "address"
        }
      ],
      "name": "balanceOf",
      "outputs": [
        {
          "internalType": "uint256",
          "name": "",
          "type": "uint256"
        }
      ],
      "stateMutability": "view",
      "type": "function"
    },
    {
      "inputs": [],
      "name": "decimals",
      "outputs": [
        {
          "internalType": "uint8",
          "name": "",
          "type": "uint8"
        }
      ],
      "stateMutability": "view",
      "type": "function"
    },
    {
      "inputs": [
        {
          "internalType": "address",
          "name": "spender",
          "type": "address"
        },
        {
          "internalType": "uint256",
          "name": "subtractedValue",
          "type": "uint256"
        }
      ],
      "name": "decreaseAllowance",
      "outputs": [
        {
          "internalType": "bool",
          "name": "",
          "type": "bool"
        }
      ],
      "stateMutability": "nonpayable",
      "type": "function"
    },
    {
      "inputs": [],
      "name": "gcoinPriceFeed",
      "outputs": [
        {
          "internalType": "contract AggregatorV3Interface",
          "name": "",
          "type": "address"
        }
      ],
      "stateMutability": "view",
      "type": "function"
    },
    {
      "inputs": [],
      "name": "gcoinValue",
      "outputs": [
        {
          "internalType": "uint256",
          "name": "",
          "type": "uint256"
        }
      ],
      "stateMutability": "view",
      "type": "function"
    },
    {
      "inputs": [
        {
          "internalType": "address",
          "name": "spender",
          "type": "address"
        },
        {
          "internalType": "uint256",
          "name": "addedValue",
          "type": "uint256"
        }
      ],
      "name": "increaseAllowance",
      "outputs": [
        {
          "internalType": "bool",
          "name": "",
          "type": "bool"
        }
      ],
      "stateMutability": "nonpayable",
      "type": "function"
    },
    {
      "inputs": [],
      "name": "mintingFee",
      "outputs": [
        {
          "internalType": "uint256",
          "name": "",
          "type": "uint256"
        }
      ],
      "stateMutability": "view",
      "type": "function"
    },
    {
      "inputs": [],
      "name": "name",
      "outputs": [
        {
          "internalType": "string",
          "name": "",
          "type": "string"
        }
      ],
      "stateMutability": "view",
      "type": "function"
    },
    {
      "inputs": [],
      "name": "owner",
      "outputs": [
        {
          "internalType": "address",
          "name": "",
          "type": "address"
        }
      ],
      "stateMutability": "view",
      "type": "function"
    },
    {
      "inputs": [],
      "name": "paused",
      "outputs": [
        {
          "internalType": "bool",
          "name": "",
          "type": "bool"
        }
      ],
      "stateMutability": "view",
      "type": "function"
    },
    {
      "inputs": [],
      "name": "renounceOwnership",
      "outputs": [],
      "stateMutability": "nonpayable",
      "type": "function"
    },
    {
      "inputs": [
        {
          "internalType": "address",
          "name": "",
          "type": "address"
        }
      ],
      "name": "stableCoins",
      "outputs": [
        {
          "internalType": "contract ERC20",
          "name": "",
          "type": "address"
        }
      ],
      "stateMutability": "view",
      "type": "function"
    },
    {
      "inputs": [],
      "name": "symbol",
      "outputs": [
        {
          "internalType": "string",
          "name": "",
          "type": "string"
        }
      ],
      "stateMutability": "view",
      "type": "function"
    },
    {
      "inputs": [],
      "name": "totalSupply",
      "outputs": [
        {
          "internalType": "uint256",
          "name": "",
          "type": "uint256"
        }
      ],
      "stateMutability": "view",
      "type": "function"
    },
    {
      "inputs": [
        {
          "internalType": "address",
          "name": "to",
          "type": "address"
        },
        {
          "internalType": "uint256",
          "name": "amount",
          "type": "uint256"
        }
      ],
      "name": "transfer",
      "outputs": [
        {
          "internalType": "bool",
          "name": "",
          "type": "bool"
        }
      ],
      "stateMutability": "nonpayable",
      "type": "function"
    },
    {
      "inputs": [
        {
          "internalType": "address",
          "name": "from",
          "type": "address"
        },
        {
          "internalType": "address",
          "name": "to",
          "type": "address"
        },
        {
          "internalType": "uint256",
          "name": "amount",
          "type": "uint256"
        }
      ],
      "name": "transferFrom",
      "outputs": [
        {
          "internalType": "bool",
          "name": "",
          "type": "bool"
        }
      ],
      "stateMutability": "nonpayable",
      "type": "function"
    },
    {
      "inputs": [
        {
          "internalType": "address",
          "name": "newOwner",
          "type": "address"
        }
      ],
      "name": "transferOwnership",
      "outputs": [],
      "stateMutability": "nonpayable",
      "type": "function"
    },
    {
      "inputs": [],
      "name": "treasury",
      "outputs": [
        {
          "internalType": "address",
          "name": "",
          "type": "address"
        }
      ],
      "stateMutability": "view",
      "type": "function"
    },
    {
      "inputs": [
        {
          "internalType": "address",
          "name": "token",
          "type": "address"
        }
      ],
      "name": "addStableCoin",
      "outputs": [],
      "stateMutability": "nonpayable",
      "type": "function"
    },
    {
      "inputs": [
        {
          "internalType": "address",
          "name": "priceFeed",
          "type": "address"
        }
      ],
      "name": "setGCoinPriceFeed",
      "outputs": [],
      "stateMutability": "nonpayable",
      "type": "function"
    },
    {
      "inputs": [
        {
          "internalType": "address",
          "name": "_treasury",
          "type": "address"
        }
      ],
      "name": "setTreasury",
      "outputs": [],
      "stateMutability": "nonpayable",
      "type": "function"
    },
    {
      "inputs": [
        {
          "internalType": "address",
          "name": "token",
          "type": "address"
        },
        {
          "internalType": "uint256",
          "name": "amount",
          "type": "uint256"
        }
      ],
      "name": "getGCoinOutputFromStable",
      "outputs": [
        {
          "internalType": "uint256",
          "name": "",
          "type": "uint256"
        }
      ],
      "stateMutability": "view",
      "type": "function"
    },
    {
      "inputs": [
        {
          "internalType": "address",
          "name": "token",
          "type": "address"
        },
        {
          "internalType": "uint256",
          "name": "amount",
          "type": "uint256"
        }
      ],
      "name": "stableCoinToGCoin",
      "outputs": [],
      "stateMutability": "nonpayable",
      "type": "function"
    },
    {
      "inputs": [],
      "name": "getGCoinValue",
      "outputs": [
        {
          "internalType": "uint256",
          "name": "",
          "type": "uint256"
        }
      ],
      "stateMutability": "view",
      "type": "function"
    },
    {
      "inputs": [],
      "name": "updateGCoinValue",
      "outputs": [],
      "stateMutability": "nonpayable",
      "type": "function"
    },
    {
      "inputs": [
        {
          "internalType": "address",
          "name": "to",
          "type": "address"
        },
        {
          "internalType": "uint256",
          "name": "amount",
          "type": "uint256"
        }
      ],
      "name": "mint",
      "outputs": [],
      "stateMutability": "nonpayable",
      "type": "function"
    },
    {
      "inputs": [
        {
          "internalType": "address",
          "name": "from",
          "type": "address"
        },
        {
          "internalType": "uint256",
          "name": "amount",
          "type": "uint256"
        }
      ],
      "name": "burn",
      "outputs": [],
      "stateMutability": "nonpayable",
      "type": "function"
    },
    {
      "inputs": [],
      "name": "pause",
      "outputs": [],
      "stateMutability": "nonpayable",
      "type": "function"
    },
    {
      "inputs": [],
      "name": "unpause",
      "outputs": [],
      "stateMutability": "nonpayable",
      "type": "function"
    }
  ],
  "bytecode": "0x608060405260016006553480156200001657600080fd5b506040518060400160405280600581526020017f47436f696e0000000000000000000000000000000000000000000000000000008152506040518060400160405280600281526020017f4743000000000000000000000000000000000000000000000000000000000000815250816003908162000094919062000441565b508060049081620000a6919062000441565b505050620000c9620000bd620000f960201b60201c565b6200010160201b60201c565b6000600560146101000a81548160ff021916908315150217905550670de0b6b3a764000060078190555062000528565b600033905090565b6000600560009054906101000a900473ffffffffffffffffffffffffffffffffffffffff16905081600560006101000a81548173ffffffffffffffffffffffffffffffffffffffff021916908373ffffffffffffffffffffffffffffffffffffffff1602179055508173ffffffffffffffffffffffffffffffffffffffff168173ffffffffffffffffffffffffffffffffffffffff167f8be0079c531659141344cd1fd0a4f28419497f9722a3daafe3b4186f6b6457e060405160405180910390a35050565b600081519050919050565b7f4e487b7100000000000000000000000000000000000000000000000000000000600052604160045260246000fd5b7f4e487b7100000000000000000000000000000000000000000000000000000000600052602260045260246000fd5b600060028204905060018216806200024957607f821691505b6020821081036200025f576200025e62000201565b5b50919050565b60008190508160005260206000209050919050565b60006020601f8301049050919050565b600082821b905092915050565b600060088302620002c97fffffffffffffffffffffffffffffffffffffffffffffffffffffffffffffffff826200028a565b620002d586836200028a565b95508019841693508086168417925050509392505050565b6000819050919050565b6000819050919050565b6000620003226200031c6200031684620002ed565b620002f7565b620002ed565b9050919050565b6000819050919050565b6200033e8362000301565b620003566200034d8262000329565b84845462000297565b825550505050565b600090565b6200036d6200035e565b6200037a81848462000333565b505050565b5b81811015620003a2576200039660008262000363565b60018101905062000380565b5050565b601f821115620003f157620003bb8162000265565b620003c6846200027a565b81016020851015620003d6578190505b620003ee620003e5856200027a565b8301826200037f565b50505b505050565b600082821c905092915050565b60006200041660001984600802620003f6565b1980831691505092915050565b600062000431838362000403565b9150826002028217905092915050565b6200044c82620001c7565b67ffffffffffffffff811115620004685762000467620001d2565b5b62000474825462000230565b62000481828285620003a6565b600060209050601f831160018114620004b95760008415620004a4578287015190505b620004b0858262000423565b86555062000520565b601f198416620004c98662000265565b60005b82811015620004f357848901518255600182019150602085019450602081019050620004cc565b868310156200051357848901516200050f601f89168262000403565b8355505b6001600288020188555050505b505050505050565b61360480620005386000396000f3fe608060405234801561001057600080fd5b50600436106101e55760003560e01c8063715018a61161010f5780639efd09fa116100a2578063dd62ed3e11610071578063dd62ed3e1461054a578063f0f442601461057a578063f2fde38b14610596578063f8913423146105b2576101e5565b80639efd09fa146104b2578063a457c2d7146104ce578063a9059cbb146104fe578063b3c1f5d81461052e576101e5565b806395d89b41116100de57806395d89b411461042c5780639b7d80101461044a5780639dc29fac146104665780639e30edd114610482576101e5565b8063715018a6146103dc5780638456cb59146103e65780638da5cb5b146103f05780638e4dfa401461040e576101e5565b806339509351116101875780635a64ad95116101565780635a64ad95146103525780635c975abb1461037057806361d027b31461038e57806370a08231146103ac576101e5565b806339509351146102cc5780633f4ba83a146102fc57806340c10f19146103065780634f2d648f14610322576101e5565b806323b872dd116101c357806323b872dd1461025657806324e1c98a14610286578063313ce567146102a457806335bbba87146102c2576101e5565b806306fdde03146101ea578063095ea7b31461020857806318160ddd14610238575b600080fd5b6101f26105d0565b6040516101ff9190612204565b60405180910390f35b610222600480360381019061021d91906122bf565b610662565b60405161022f919061231a565b60405180910390f35b610240610685565b60405161024d9190612344565b60405180910390f35b610270600480360381019061026b919061235f565b61068f565b60405161027d919061231a565b60405180910390f35b61028e6106be565b60405161029b9190612344565b60405180910390f35b6102ac6106c8565b6040516102b991906123ce565b60405180910390f35b6102ca6106d1565b005b6102e660048036038101906102e191906122bf565b6106ef565b6040516102f3919061231a565b60405180910390f35b610304610726565b005b610320600480360381019061031b91906122bf565b610738565b005b61033c600480360381019061033791906123e9565b61074e565b6040516103499190612475565b60405180910390f35b61035a610781565b6040516103679190612344565b60405180910390f35b610378610787565b604051610385919061231a565b60405180910390f35b61039661079e565b6040516103a3919061249f565b60405180910390f35b6103c660048036038101906103c191906123e9565b6107c4565b6040516103d39190612344565b60405180910390f35b6103e461080c565b005b6103ee610820565b005b6103f8610832565b604051610405919061249f565b60405180910390f35b61041661085c565b60405161042391906124db565b60405180910390f35b610434610882565b6040516104419190612204565b60405180910390f35b610464600480360381019061045f91906122bf565b610914565b005b610480600480360381019061047b91906122bf565b610e1a565b005b61049c600480360381019061049791906122bf565b610e30565b6040516104a99190612344565b60405180910390f35b6104cc60048036038101906104c791906123e9565b610f7b565b005b6104e860048036038101906104e391906122bf565b610fc7565b6040516104f5919061231a565b60405180910390f35b610518600480360381019061051391906122bf565b61103e565b604051610525919061231a565b60405180910390f35b610548600480360381019061054391906123e9565b611061565b005b610564600480360381019061055f91906124f6565b6110ea565b6040516105719190612344565b60405180910390f35b610594600480360381019061058f91906123e9565b611171565b005b6105b060048036038101906105ab91906123e9565b6111bd565b005b6105ba611240565b6040516105c79190612344565b60405180910390f35b6060600380546105df90612565565b80601f016020809104026020016040519081016040528092919081815260200182805461060b90612565565b80156106585780601f1061062d57610100808354040283529160200191610658565b820191906000526020600020905b81548152906001019060200180831161063b57829003601f168201915b5050505050905090565b60008061066d611246565b905061067a81858561124e565b600191505092915050565b6000600254905090565b60008061069a611246565b90506106a7858285611417565b6106b28585856114a3565b60019150509392505050565b6000600754905090565b60006012905090565b6106d9611719565b60006106e3611797565b90508060078190555050565b6000806106fa611246565b905061071b81858561070c85896110ea565b61071691906125c5565b61124e565b600191505092915050565b61072e611719565b6107366118c9565b565b610740611719565b61074a828261192c565b5050565b60096020528060005260406000206000915054906101000a900473ffffffffffffffffffffffffffffffffffffffff1681565b60065481565b6000600560149054906101000a900460ff16905090565b600a60009054906101000a900473ffffffffffffffffffffffffffffffffffffffff1681565b60008060008373ffffffffffffffffffffffffffffffffffffffff1673ffffffffffffffffffffffffffffffffffffffff168152602001908152602001600020549050919050565b610814611719565b61081e6000611a82565b565b610828611719565b610830611b48565b565b6000600560009054906101000a900473ffffffffffffffffffffffffffffffffffffffff16905090565b600860009054906101000a900473ffffffffffffffffffffffffffffffffffffffff1681565b60606004805461089190612565565b80601f01602080910402602001604051908101604052809291908181526020018280546108bd90612565565b801561090a5780601f106108df5761010080835404028352916020019161090a565b820191906000526020600020905b8154815290600101906020018083116108ed57829003601f168201915b5050505050905090565b61091c611bab565b6000600960008473ffffffffffffffffffffffffffffffffffffffff1673ffffffffffffffffffffffffffffffffffffffff16815260200190815260200160002060009054906101000a900473ffffffffffffffffffffffffffffffffffffffff169050600073ffffffffffffffffffffffffffffffffffffffff168173ffffffffffffffffffffffffffffffffffffffff16036109ef576040517f08c379a00000000000000000000000000000000000000000000000000000000081526004016109e690612645565b60405180910390fd5b600073ffffffffffffffffffffffffffffffffffffffff16600a60009054906101000a900473ffffffffffffffffffffffffffffffffffffffff1673ffffffffffffffffffffffffffffffffffffffff1603610a80576040517f08c379a0000000000000000000000000000000000000000000000000000000008152600401610a77906126b1565b60405180910390fd5b60008173ffffffffffffffffffffffffffffffffffffffff1663dd62ed3e33306040518363ffffffff1660e01b8152600401610abd9291906126d1565b602060405180830381865afa158015610ada573d6000803e3d6000fd5b505050506040513d601f19601f82011682018060405250810190610afe919061270f565b905082811015610b43576040517f08c379a0000000000000000000000000000000000000000000000000000000008152600401610b3a90612788565b60405180910390fd5b60008273ffffffffffffffffffffffffffffffffffffffff1663313ce5676040518163ffffffff1660e01b8152600401602060405180830381865afa158015610b90573d6000803e3d6000fd5b505050506040513d601f19601f82011682018060405250810190610bb491906127d4565b60ff16600a610bc39190612934565b90506000610c216006546064610bd991906125c5565b610c136064610c05600754610bf7888c611bf590919063ffffffff16565b611c0b90919063ffffffff16565b611bf590919063ffffffff16565b611c0b90919063ffffffff16565b905060008473ffffffffffffffffffffffffffffffffffffffff166370a08231600a60009054906101000a900473ffffffffffffffffffffffffffffffffffffffff166040518263ffffffff1660e01b8152600401610c80919061249f565b602060405180830381865afa158015610c9d573d6000803e3d6000fd5b505050506040513d601f19601f82011682018060405250810190610cc1919061270f565b9050610d1233600a60009054906101000a900473ffffffffffffffffffffffffffffffffffffffff16888873ffffffffffffffffffffffffffffffffffffffff16611c21909392919063ffffffff16565b60008573ffffffffffffffffffffffffffffffffffffffff166370a08231600a60009054906101000a900473ffffffffffffffffffffffffffffffffffffffff166040518263ffffffff1660e01b8152600401610d6f919061249f565b602060405180830381865afa158015610d8c573d6000803e3d6000fd5b505050506040513d601f19601f82011682018060405250810190610db0919061270f565b9050610dc58783611caa90919063ffffffff16565b8114610e06576040517f08c379a0000000000000000000000000000000000000000000000000000000008152600401610dfd906129f1565b60405180910390fd5b610e10338461192c565b5050505050505050565b610e22611719565b610e2c8282611cc0565b5050565b600080600960008573ffffffffffffffffffffffffffffffffffffffff1673ffffffffffffffffffffffffffffffffffffffff16815260200190815260200160002060009054906101000a900473ffffffffffffffffffffffffffffffffffffffff1673ffffffffffffffffffffffffffffffffffffffff1663313ce5676040518163ffffffff1660e01b8152600401602060405180830381865afa158015610edd573d6000803e3d6000fd5b505050506040513d601f19601f82011682018060405250810190610f0191906127d4565b60ff16600a610f109190612934565b90506000610f6e6006546064610f2691906125c5565b610f606064610f52600754610f44888b611bf590919063ffffffff16565b611c0b90919063ffffffff16565b611bf590919063ffffffff16565b611c0b90919063ffffffff16565b9050809250505092915050565b610f83611719565b80600860006101000a81548173ffffffffffffffffffffffffffffffffffffffff021916908373ffffffffffffffffffffffffffffffffffffffff16021790555050565b600080610fd2611246565b90506000610fe082866110ea565b905083811015611025576040517f08c379a000000000000000000000000000000000000000000000000000000000815260040161101c90612a83565b60405180910390fd5b611032828686840361124e565b60019250505092915050565b600080611049611246565b90506110568185856114a3565b600191505092915050565b611069611719565b80600960008373ffffffffffffffffffffffffffffffffffffffff1673ffffffffffffffffffffffffffffffffffffffff16815260200190815260200160002060006101000a81548173ffffffffffffffffffffffffffffffffffffffff021916908373ffffffffffffffffffffffffffffffffffffffff16021790555050565b6000600160008473ffffffffffffffffffffffffffffffffffffffff1673ffffffffffffffffffffffffffffffffffffffff16815260200190815260200160002060008373ffffffffffffffffffffffffffffffffffffffff1673ffffffffffffffffffffffffffffffffffffffff16815260200190815260200160002054905092915050565b611179611719565b80600a60006101000a81548173ffffffffffffffffffffffffffffffffffffffff021916908373ffffffffffffffffffffffffffffffffffffffff16021790555050565b6111c5611719565b600073ffffffffffffffffffffffffffffffffffffffff168173ffffffffffffffffffffffffffffffffffffffff1603611234576040517f08c379a000000000000000000000000000000000000000000000000000000000815260040161122b90612b15565b60405180910390fd5b61123d81611a82565b50565b60075481565b600033905090565b600073ffffffffffffffffffffffffffffffffffffffff168373ffffffffffffffffffffffffffffffffffffffff16036112bd576040517f08c379a00000000000000000000000000000000000000000000000000000000081526004016112b490612ba7565b60405180910390fd5b600073ffffffffffffffffffffffffffffffffffffffff168273ffffffffffffffffffffffffffffffffffffffff160361132c576040517f08c379a000000000000000000000000000000000000000000000000000000000815260040161132390612c39565b60405180910390fd5b80600160008573ffffffffffffffffffffffffffffffffffffffff1673ffffffffffffffffffffffffffffffffffffffff16815260200190815260200160002060008473ffffffffffffffffffffffffffffffffffffffff1673ffffffffffffffffffffffffffffffffffffffff168152602001908152602001600020819055508173ffffffffffffffffffffffffffffffffffffffff168373ffffffffffffffffffffffffffffffffffffffff167f8c5be1e5ebec7d5bd14f71427d1e84f3dd0314c0f7b2291e5b200ac8c7c3b9258360405161140a9190612344565b60405180910390a3505050565b600061142384846110ea565b90507fffffffffffffffffffffffffffffffffffffffffffffffffffffffffffffffff811461149d578181101561148f576040517f08c379a000000000000000000000000000000000000000000000000000000000815260040161148690612ca5565b60405180910390fd5b61149c848484840361124e565b5b50505050565b600073ffffffffffffffffffffffffffffffffffffffff168373ffffffffffffffffffffffffffffffffffffffff1603611512576040517f08c379a000000000000000000000000000000000000000000000000000000000815260040161150990612d37565b60405180910390fd5b600073ffffffffffffffffffffffffffffffffffffffff168273ffffffffffffffffffffffffffffffffffffffff1603611581576040517f08c379a000000000000000000000000000000000000000000000000000000000815260040161157890612dc9565b60405180910390fd5b61158c838383611e8d565b60008060008573ffffffffffffffffffffffffffffffffffffffff1673ffffffffffffffffffffffffffffffffffffffff16815260200190815260200160002054905081811015611612576040517f08c379a000000000000000000000000000000000000000000000000000000000815260040161160990612e5b565b60405180910390fd5b8181036000808673ffffffffffffffffffffffffffffffffffffffff1673ffffffffffffffffffffffffffffffffffffffff16815260200190815260200160002081905550816000808573ffffffffffffffffffffffffffffffffffffffff1673ffffffffffffffffffffffffffffffffffffffff168152602001908152602001600020600082825401925050819055508273ffffffffffffffffffffffffffffffffffffffff168473ffffffffffffffffffffffffffffffffffffffff167fddf252ad1be2c89b69c2b068fc378daa952ba7f163c4a11628f55a4df523b3ef846040516117009190612344565b60405180910390a3611713848484611e92565b50505050565b611721611246565b73ffffffffffffffffffffffffffffffffffffffff1661173f610832565b73ffffffffffffffffffffffffffffffffffffffff1614611795576040517f08c379a000000000000000000000000000000000000000000000000000000000815260040161178c90612ec7565b60405180910390fd5b565b60008073ffffffffffffffffffffffffffffffffffffffff16600860009054906101000a900473ffffffffffffffffffffffffffffffffffffffff1673ffffffffffffffffffffffffffffffffffffffff1603611829576040517f08c379a000000000000000000000000000000000000000000000000000000000815260040161182090612f33565b60405180910390fd5b6000600860009054906101000a900473ffffffffffffffffffffffffffffffffffffffff1673ffffffffffffffffffffffffffffffffffffffff1663feaf968c6040518163ffffffff1660e01b815260040160a060405180830381865afa158015611898573d6000803e3d6000fd5b505050506040513d601f19601f820116820180604052508101906118bc9190612fcb565b5050509150508091505090565b6118d1611e97565b6000600560146101000a81548160ff0219169083151502179055507f5db9ee0a495bf2e6ff9c91a7834c1ba4fdd244a5e8aa4e537bd38aeae4b073aa611915611246565b604051611922919061249f565b60405180910390a1565b600073ffffffffffffffffffffffffffffffffffffffff168273ffffffffffffffffffffffffffffffffffffffff160361199b576040517f08c379a000000000000000000000000000000000000000000000000000000000815260040161199290613092565b60405180910390fd5b6119a760008383611e8d565b80600260008282546119b991906125c5565b92505081905550806000808473ffffffffffffffffffffffffffffffffffffffff1673ffffffffffffffffffffffffffffffffffffffff168152602001908152602001600020600082825401925050819055508173ffffffffffffffffffffffffffffffffffffffff16600073ffffffffffffffffffffffffffffffffffffffff167fddf252ad1be2c89b69c2b068fc378daa952ba7f163c4a11628f55a4df523b3ef83604051611a6a9190612344565b60405180910390a3611a7e60008383611e92565b5050565b6000600560009054906101000a900473ffffffffffffffffffffffffffffffffffffffff16905081600560006101000a81548173ffffffffffffffffffffffffffffffffffffffff021916908373ffffffffffffffffffffffffffffffffffffffff1602179055508173ffffffffffffffffffffffffffffffffffffffff168173ffffffffffffffffffffffffffffffffffffffff167f8be0079c531659141344cd1fd0a4f28419497f9722a3daafe3b4186f6b6457e060405160405180910390a35050565b611b50611bab565b6001600560146101000a81548160ff0219169083151502179055507f62e78cea01bee320cd4e420270b5ea74000d11b0c9f74754ebdbfc544b05a258611b94611246565b604051611ba1919061249f565b60405180910390a1565b611bb3610787565b15611bf3576040517f08c379a0000000000000000000000000000000000000000000000000000000008152600401611bea906130fe565b60405180910390fd5b565b60008183611c03919061311e565b905092915050565b60008183611c19919061318f565b905092915050565b611ca4846323b872dd60e01b858585604051602401611c42939291906131c0565b604051602081830303815290604052907bffffffffffffffffffffffffffffffffffffffffffffffffffffffff19166020820180517bffffffffffffffffffffffffffffffffffffffffffffffffffffffff8381831617835250505050611ee0565b50505050565b60008183611cb891906125c5565b905092915050565b600073ffffffffffffffffffffffffffffffffffffffff168273ffffffffffffffffffffffffffffffffffffffff1603611d2f576040517f08c379a0000000000000000000000000000000000000000000000000000000008152600401611d2690613269565b60405180910390fd5b611d3b82600083611e8d565b60008060008473ffffffffffffffffffffffffffffffffffffffff1673ffffffffffffffffffffffffffffffffffffffff16815260200190815260200160002054905081811015611dc1576040517f08c379a0000000000000000000000000000000000000000000000000000000008152600401611db8906132fb565b60405180910390fd5b8181036000808573ffffffffffffffffffffffffffffffffffffffff1673ffffffffffffffffffffffffffffffffffffffff1681526020019081526020016000208190555081600260008282540392505081905550600073ffffffffffffffffffffffffffffffffffffffff168373ffffffffffffffffffffffffffffffffffffffff167fddf252ad1be2c89b69c2b068fc378daa952ba7f163c4a11628f55a4df523b3ef84604051611e749190612344565b60405180910390a3611e8883600084611e92565b505050565b505050565b505050565b611e9f610787565b611ede576040517f08c379a0000000000000000000000000000000000000000000000000000000008152600401611ed590613367565b60405180910390fd5b565b6000611f42826040518060400160405280602081526020017f5361666545524332303a206c6f772d6c6576656c2063616c6c206661696c65648152508573ffffffffffffffffffffffffffffffffffffffff16611fa79092919063ffffffff16565b9050600081511115611fa25780806020019051810190611f6291906133b3565b611fa1576040517f08c379a0000000000000000000000000000000000000000000000000000000008152600401611f9890613452565b60405180910390fd5b5b505050565b6060611fb68484600085611fbf565b90509392505050565b606082471015612004576040517f08c379a0000000000000000000000000000000000000000000000000000000008152600401611ffb906134e4565b60405180910390fd5b6000808673ffffffffffffffffffffffffffffffffffffffff16858760405161202d919061354b565b60006040518083038185875af1925050503d806000811461206a576040519150601f19603f3d011682016040523d82523d6000602084013e61206f565b606091505b50915091506120808783838761208c565b92505050949350505050565b606083156120ee5760008351036120e6576120a685612101565b6120e5576040517f08c379a00000000000000000000000000000000000000000000000000000000081526004016120dc906135ae565b60405180910390fd5b5b8290506120f9565b6120f88383612124565b5b949350505050565b6000808273ffffffffffffffffffffffffffffffffffffffff163b119050919050565b6000825111156121375781518083602001fd5b806040517f08c379a000000000000000000000000000000000000000000000000000000000815260040161216b9190612204565b60405180910390fd5b600081519050919050565b600082825260208201905092915050565b60005b838110156121ae578082015181840152602081019050612193565b60008484015250505050565b6000601f19601f8301169050919050565b60006121d682612174565b6121e0818561217f565b93506121f0818560208601612190565b6121f9816121ba565b840191505092915050565b6000602082019050818103600083015261221e81846121cb565b905092915050565b600080fd5b600073ffffffffffffffffffffffffffffffffffffffff82169050919050565b60006122568261222b565b9050919050565b6122668161224b565b811461227157600080fd5b50565b6000813590506122838161225d565b92915050565b6000819050919050565b61229c81612289565b81146122a757600080fd5b50565b6000813590506122b981612293565b92915050565b600080604083850312156122d6576122d5612226565b5b60006122e485828601612274565b92505060206122f5858286016122aa565b9150509250929050565b60008115159050919050565b612314816122ff565b82525050565b600060208201905061232f600083018461230b565b92915050565b61233e81612289565b82525050565b60006020820190506123596000830184612335565b92915050565b60008060006060848603121561237857612377612226565b5b600061238686828701612274565b935050602061239786828701612274565b92505060406123a8868287016122aa565b9150509250925092565b600060ff82169050919050565b6123c8816123b2565b82525050565b60006020820190506123e360008301846123bf565b92915050565b6000602082840312156123ff576123fe612226565b5b600061240d84828501612274565b91505092915050565b6000819050919050565b600061243b6124366124318461222b565b612416565b61222b565b9050919050565b600061244d82612420565b9050919050565b600061245f82612442565b9050919050565b61246f81612454565b82525050565b600060208201905061248a6000830184612466565b92915050565b6124998161224b565b82525050565b60006020820190506124b46000830184612490565b92915050565b60006124c582612442565b9050919050565b6124d5816124ba565b82525050565b60006020820190506124f060008301846124cc565b92915050565b6000806040838503121561250d5761250c612226565b5b600061251b85828601612274565b925050602061252c85828601612274565b9150509250929050565b7f4e487b7100000000000000000000000000000000000000000000000000000000600052602260045260246000fd5b6000600282049050600182168061257d57607f821691505b6020821081036125905761258f612536565b5b50919050565b7f4e487b7100000000000000000000000000000000000000000000000000000000600052601160045260246000fd5b60006125d082612289565b91506125db83612289565b92508282019050808211156125f3576125f2612596565b5b92915050565b7f537461626c6520636f696e206e6f7420666f756e640000000000000000000000600082015250565b600061262f60158361217f565b915061263a826125f9565b602082019050919050565b6000602082019050818103600083015261265e81612622565b9050919050565b7f54726561737572792061646472657373206e6f74207365740000000000000000600082015250565b600061269b60188361217f565b91506126a682612665565b602082019050919050565b600060208201905081810360008301526126ca8161268e565b9050919050565b60006040820190506126e66000830185612490565b6126f36020830184612490565b9392505050565b60008151905061270981612293565b92915050565b60006020828403121561272557612724612226565b5b6000612733848285016126fa565b91505092915050565b7f416d6f756e74206e6f7420616c6c6f7765640000000000000000000000000000600082015250565b600061277260128361217f565b915061277d8261273c565b602082019050919050565b600060208201905081810360008301526127a181612765565b9050919050565b6127b1816123b2565b81146127bc57600080fd5b50565b6000815190506127ce816127a8565b92915050565b6000602082840312156127ea576127e9612226565b5b60006127f8848285016127bf565b91505092915050565b60008160011c9050919050565b6000808291508390505b60018511156128585780860481111561283457612833612596565b5b60018516156128435780820291505b808102905061285185612801565b9450612818565b94509492505050565b600082612871576001905061292d565b8161287f576000905061292d565b8160018114612895576002811461289f576128ce565b600191505061292d565b60ff8411156128b1576128b0612596565b5b8360020a9150848211156128c8576128c7612596565b5b5061292d565b5060208310610133831016604e8410600b84101617156129035782820a9050838111156128fe576128fd612596565b5b61292d565b612910848484600161280e565b9250905081840481111561292757612926612596565b5b81810290505b9392505050565b600061293f82612289565b915061294a83612289565b92506129777fffffffffffffffffffffffffffffffffffffffffffffffffffffffffffffffff8484612861565b905092915050565b7f54726561737572792062616c616e636520646964206e6f7420696e637265617360008201527f6520636f72726563746c79000000000000000000000000000000000000000000602082015250565b60006129db602b8361217f565b91506129e68261297f565b604082019050919050565b60006020820190508181036000830152612a0a816129ce565b9050919050565b7f45524332303a2064656372656173656420616c6c6f77616e63652062656c6f7760008201527f207a65726f000000000000000000000000000000000000000000000000000000602082015250565b6000612a6d60258361217f565b9150612a7882612a11565b604082019050919050565b60006020820190508181036000830152612a9c81612a60565b9050919050565b7f4f776e61626c653a206e6577206f776e657220697320746865207a65726f206160008201527f6464726573730000000000000000000000000000000000000000000000000000602082015250565b6000612aff60268361217f565b9150612b0a82612aa3565b604082019050919050565b60006020820190508181036000830152612b2e81612af2565b9050919050565b7f45524332303a20617070726f76652066726f6d20746865207a65726f2061646460008201527f7265737300000000000000000000000000000000000000000000000000000000602082015250565b6000612b9160248361217f565b9150612b9c82612b35565b604082019050919050565b60006020820190508181036000830152612bc081612b84565b9050919050565b7f45524332303a20617070726f766520746f20746865207a65726f20616464726560008201527f7373000000000000000000000000000000000000000000000000000000000000602082015250565b6000612c2360228361217f565b9150612c2e82612bc7565b604082019050919050565b60006020820190508181036000830152612c5281612c16565b9050919050565b7f45524332303a20696e73756666696369656e7420616c6c6f77616e6365000000600082015250565b6000612c8f601d8361217f565b9150612c9a82612c59565b602082019050919050565b60006020820190508181036000830152612cbe81612c82565b9050919050565b7f45524332303a207472616e736665722066726f6d20746865207a65726f20616460008201527f6472657373000000000000000000000000000000000000000000000000000000602082015250565b6000612d2160258361217f565b9150612d2c82612cc5565b604082019050919050565b60006020820190508181036000830152612d5081612d14565b9050919050565b7f45524332303a207472616e7366657220746f20746865207a65726f206164647260008201527f6573730000000000000000000000000000000000000000000000000000000000602082015250565b6000612db360238361217f565b9150612dbe82612d57565b604082019050919050565b60006020820190508181036000830152612de281612da6565b9050919050565b7f45524332303a207472616e7366657220616d6f756e742065786365656473206260008201527f616c616e63650000000000000000000000000000000000000000000000000000602082015250565b6000612e4560268361217f565b9150612e5082612de9565b604082019050919050565b60006020820190508181036000830152612e7481612e38565b9050919050565b7f4f776e61626c653a2063616c6c6572206973206e6f7420746865206f776e6572600082015250565b6000612eb160208361217f565b9150612ebc82612e7b565b602082019050919050565b60006020820190508181036000830152612ee081612ea4565b9050919050565b7f47436f696e2070726963652066656564206e6f74207365740000000000000000600082015250565b6000612f1d60188361217f565b9150612f2882612ee7565b602082019050919050565b60006020820190508181036000830152612f4c81612f10565b9050919050565b600069ffffffffffffffffffff82169050919050565b612f7281612f53565b8114612f7d57600080fd5b50565b600081519050612f8f81612f69565b92915050565b6000819050919050565b612fa881612f95565b8114612fb357600080fd5b50565b600081519050612fc581612f9f565b92915050565b600080600080600060a08688031215612fe757612fe6612226565b5b6000612ff588828901612f80565b955050602061300688828901612fb6565b9450506040613017888289016126fa565b9350506060613028888289016126fa565b925050608061303988828901612f80565b9150509295509295909350565b7f45524332303a206d696e7420746f20746865207a65726f206164647265737300600082015250565b600061307c601f8361217f565b915061308782613046565b602082019050919050565b600060208201905081810360008301526130ab8161306f565b9050919050565b7f5061757361626c653a2070617573656400000000000000000000000000000000600082015250565b60006130e860108361217f565b91506130f3826130b2565b602082019050919050565b60006020820190508181036000830152613117816130db565b9050919050565b600061312982612289565b915061313483612289565b925082820261314281612289565b9150828204841483151761315957613158612596565b5b5092915050565b7f4e487b7100000000000000000000000000000000000000000000000000000000600052601260045260246000fd5b600061319a82612289565b91506131a583612289565b9250826131b5576131b4613160565b5b828204905092915050565b60006060820190506131d56000830186612490565b6131e26020830185612490565b6131ef6040830184612335565b949350505050565b7f45524332303a206275726e2066726f6d20746865207a65726f2061646472657360008201527f7300000000000000000000000000000000000000000000000000000000000000602082015250565b600061325360218361217f565b915061325e826131f7565b604082019050919050565b6000602082019050818103600083015261328281613246565b9050919050565b7f45524332303a206275726e20616d6f756e7420657863656564732062616c616e60008201527f6365000000000000000000000000000000000000000000000000000000000000602082015250565b60006132e560228361217f565b91506132f082613289565b604082019050919050565b60006020820190508181036000830152613314816132d8565b9050919050565b7f5061757361626c653a206e6f7420706175736564000000000000000000000000600082015250565b600061335160148361217f565b915061335c8261331b565b602082019050919050565b6000602082019050818103600083015261338081613344565b9050919050565b613390816122ff565b811461339b57600080fd5b50565b6000815190506133ad81613387565b92915050565b6000602082840312156133c9576133c8612226565b5b60006133d78482850161339e565b91505092915050565b7f5361666545524332303a204552433230206f7065726174696f6e20646964206e60008201527f6f74207375636365656400000000000000000000000000000000000000000000602082015250565b600061343c602a8361217f565b9150613447826133e0565b604082019050919050565b6000602082019050818103600083015261346b8161342f565b9050919050565b7f416464726573733a20696e73756666696369656e742062616c616e636520666f60008201527f722063616c6c0000000000000000000000000000000000000000000000000000602082015250565b60006134ce60268361217f565b91506134d982613472565b604082019050919050565b600060208201905081810360008301526134fd816134c1565b9050919050565b600081519050919050565b600081905092915050565b600061352582613504565b61352f818561350f565b935061353f818560208601612190565b80840191505092915050565b6000613557828461351a565b915081905092915050565b7f416464726573733a2063616c6c20746f206e6f6e2d636f6e7472616374000000600082015250565b6000613598601d8361217f565b91506135a382613562565b602082019050919050565b600060208201905081810360008301526135c78161358b565b905091905056fea26469706673582212204922fbb9bfad32e6957153d08c1a2044e3a8e8323eb323cf0d562b5a7ff72f7d64736f6c63430008130033",
  "immutableReferences": {},
  "source": "pragma solidity ^0.8.0;\n\nimport \"@openzeppelin/contracts/token/ERC20/ERC20.sol\";\nimport \"@openzeppelin/contracts/token/ERC20/utils/SafeERC20.sol\";\nimport \"@openzeppelin/contracts/utils/math/SafeMath.sol\";\nimport \"@openzeppelin/contracts/access/Ownable.sol\";\nimport \"@openzeppelin/contracts/security/Pausable.sol\";\nimport \"@chainlink/contracts/src/v0.8/interfaces/AggregatorV3Interface.sol\";\n\ncontract GCoin is ERC20, Ownable, Pausable {\n\n    using SafeMath for uint256;\n    using SafeERC20 for ERC20;\n\n    uint256 public mintingFee = 1; // 1% fee\n    uint256 public gcoinValue;\n\n    AggregatorV3Interface public gcoinPriceFeed;\n    mapping(address => ERC20) public stableCoins;\n\n    address public treasury;\n\n    constructor() ERC20(\"GCoin\", \"GC\") {\n        gcoinValue = 1e18; // Initial value set to 1 stable coin\n    }\n\n    function addStableCoin(address token) public onlyOwner {\n        stableCoins[token] = ERC20(token);\n    }\n\n    function setGCoinPriceFeed(address priceFeed) public onlyOwner {\n        gcoinPriceFeed = AggregatorV3Interface(priceFeed);\n    }\n\n    function setTreasury(address _treasury) public onlyOwner {\n        treasury = _treasury;\n    }\n\n    function getLatestPrice() private view returns (uint256) {\n        require(\n            address(gcoinPriceFeed) != address(0),\n            \"GCoin price feed not set\"\n        );\n        (, int256 price, , , ) = gcoinPriceFeed.latestRoundData();\n        return uint256(price);\n    }\n\n    function getGCoinOutputFromStable(address token, uint256 amount) public view returns (uint256) {\n        uint256 stableCoinDecimals = 10**uint256(stableCoins[token].decimals());\n        uint256 gcoinAmount = amount\n            .mul(stableCoinDecimals)\n            .div(gcoinValue)\n            .mul(100)\n            .div(100 + mintingFee);\n        return gcoinAmount;\n    }\n\n    function stableCoinToGCoin(address token, uint256 amount) public whenNotPaused {\n        ERC20 stableCoin = stableCoins[token];\n        require(address(stableCoin) != address(0), \"Stable coin not found\");\n        require(treasury != address(0), \"Treasury address not set\");\n\n        uint256 allowance = stableCoin.allowance(msg.sender, address(this));\n        require(allowance >= amount, \"Amount not allowed\");\n\n        uint256 stableCoinDecimals = 10**uint256(stableCoin.decimals());\n        uint256 gcoinAmount = amount\n            .mul(stableCoinDecimals)\n            .div(gcoinValue)\n            .mul(100)\n            .div(100 + mintingFee);\n\n        uint256 initialTreasuryBalance = stableCoin.balanceOf(treasury);\n        stableCoin.safeTransferFrom(msg.sender, treasury, amount);\n        uint256 finalTreasuryBalance = stableCoin.balanceOf(treasury);\n\n        require(\n            finalTreasuryBalance == initialTreasuryBalance.add(amount),\n            \"Treasury balance did not increase correctly\"\n        );\n\n        _mint(msg.sender, gcoinAmount);\n    }\n    function getGCoinValue() public view returns (uint256) {\n        return gcoinValue;\n    }\n\n    function updateGCoinValue() public onlyOwner {\n        uint256 chainlinkValue = getLatestPrice();\n        gcoinValue = chainlinkValue;\n    }\n\n    function mint(address to, uint256 amount) external onlyOwner {\n        _mint(to, amount);\n    }\n\n    function burn(address from, uint256 amount) external onlyOwner {\n        _burn(from, amount);\n    }\n\n    function pause() external onlyOwner {\n        _pause();\n    }\n\n    function unpause() external onlyOwner {\n        _unpause();\n    }\n}\n",
  "sourcePath": "/Users/zhuming0828/Documents/projects/gcoin/GCoin/contracts/GCoin.sol",
  "compiler": {
    "name": "solc",
    "version": "0.8.19+commit.7dd6d404.Emscripten.clang"
  },
  "schemaVersion": "3.4.13",
  "updatedAt": "2023-05-07T21:43:22.104Z",
  "devdoc": {
    "events": {
      "Approval(address,address,uint256)": {
        "details": "Emitted when the allowance of a `spender` for an `owner` is set by a call to {approve}. `value` is the new allowance."
      },
      "Paused(address)": {
        "details": "Emitted when the pause is triggered by `account`."
      },
      "Transfer(address,address,uint256)": {
        "details": "Emitted when `value` tokens are moved from one account (`from`) to another (`to`). Note that `value` may be zero."
      },
      "Unpaused(address)": {
        "details": "Emitted when the pause is lifted by `account`."
      }
    },
    "kind": "dev",
    "methods": {
      "allowance(address,address)": {
        "details": "See {IERC20-allowance}."
      },
      "approve(address,uint256)": {
        "details": "See {IERC20-approve}. NOTE: If `amount` is the maximum `uint256`, the allowance is not updated on `transferFrom`. This is semantically equivalent to an infinite approval. Requirements: - `spender` cannot be the zero address."
      },
      "balanceOf(address)": {
        "details": "See {IERC20-balanceOf}."
      },
      "decimals()": {
        "details": "Returns the number of decimals used to get its user representation. For example, if `decimals` equals `2`, a balance of `505` tokens should be displayed to a user as `5.05` (`505 / 10 ** 2`). Tokens usually opt for a value of 18, imitating the relationship between Ether and Wei. This is the value {ERC20} uses, unless this function is overridden; NOTE: This information is only used for _display_ purposes: it in no way affects any of the arithmetic of the contract, including {IERC20-balanceOf} and {IERC20-transfer}."
      },
      "decreaseAllowance(address,uint256)": {
        "details": "Atomically decreases the allowance granted to `spender` by the caller. This is an alternative to {approve} that can be used as a mitigation for problems described in {IERC20-approve}. Emits an {Approval} event indicating the updated allowance. Requirements: - `spender` cannot be the zero address. - `spender` must have allowance for the caller of at least `subtractedValue`."
      },
      "increaseAllowance(address,uint256)": {
        "details": "Atomically increases the allowance granted to `spender` by the caller. This is an alternative to {approve} that can be used as a mitigation for problems described in {IERC20-approve}. Emits an {Approval} event indicating the updated allowance. Requirements: - `spender` cannot be the zero address."
      },
      "name()": {
        "details": "Returns the name of the token."
      },
      "owner()": {
        "details": "Returns the address of the current owner."
      },
      "paused()": {
        "details": "Returns true if the contract is paused, and false otherwise."
      },
      "renounceOwnership()": {
        "details": "Leaves the contract without owner. It will not be possible to call `onlyOwner` functions anymore. Can only be called by the current owner. NOTE: Renouncing ownership will leave the contract without an owner, thereby removing any functionality that is only available to the owner."
      },
      "symbol()": {
        "details": "Returns the symbol of the token, usually a shorter version of the name."
      },
      "totalSupply()": {
        "details": "See {IERC20-totalSupply}."
      },
      "transfer(address,uint256)": {
        "details": "See {IERC20-transfer}. Requirements: - `to` cannot be the zero address. - the caller must have a balance of at least `amount`."
      },
      "transferFrom(address,address,uint256)": {
        "details": "See {IERC20-transferFrom}. Emits an {Approval} event indicating the updated allowance. This is not required by the EIP. See the note at the beginning of {ERC20}. NOTE: Does not update the allowance if the current allowance is the maximum `uint256`. Requirements: - `from` and `to` cannot be the zero address. - `from` must have a balance of at least `amount`. - the caller must have allowance for ``from``'s tokens of at least `amount`."
      },
      "transferOwnership(address)": {
        "details": "Transfers ownership of the contract to a new account (`newOwner`). Can only be called by the current owner."
      }
    },
    "version": 1
  },
  "userdoc": {
    "kind": "user",
    "methods": {},
    "version": 1
  }
}