{
  "contractName": "GCoin",
  "abi": [
    {
      "inputs": [
        {
          "internalType": "address",
          "name": "_stableCoin",
          "type": "address"
        },
        {
          "internalType": "address",
          "name": "_stableCoinPriceFeed",
          "type": "address"
        }
      ],
      "stateMutability": "nonpayable",
      "type": "constructor"
    },
    {
      "anonymous": false,
      "inputs": [
        {
          "indexed": true,
          "internalType": "address",
          "name": "owner",
          "type": "address"
        },
        {
          "indexed": true,
          "internalType": "address",
          "name": "spender",
          "type": "address"
        },
        {
          "indexed": false,
          "internalType": "uint256",
          "name": "value",
          "type": "uint256"
        }
      ],
      "name": "Approval",
      "type": "event"
    },
    {
      "anonymous": false,
      "inputs": [
        {
          "indexed": true,
          "internalType": "address",
          "name": "previousOwner",
          "type": "address"
        },
        {
          "indexed": true,
          "internalType": "address",
          "name": "newOwner",
          "type": "address"
        }
      ],
      "name": "OwnershipTransferred",
      "type": "event"
    },
    {
      "anonymous": false,
      "inputs": [
        {
          "indexed": true,
          "internalType": "address",
          "name": "from",
          "type": "address"
        },
        {
          "indexed": true,
          "internalType": "address",
          "name": "to",
          "type": "address"
        },
        {
          "indexed": false,
          "internalType": "uint256",
          "name": "value",
          "type": "uint256"
        }
      ],
      "name": "Transfer",
      "type": "event"
    },
    {
      "inputs": [
        {
          "internalType": "address",
          "name": "owner",
          "type": "address"
        },
        {
          "internalType": "address",
          "name": "spender",
          "type": "address"
        }
      ],
      "name": "allowance",
      "outputs": [
        {
          "internalType": "uint256",
          "name": "",
          "type": "uint256"
        }
      ],
      "stateMutability": "view",
      "type": "function"
    },
    {
      "inputs": [
        {
          "internalType": "address",
          "name": "spender",
          "type": "address"
        },
        {
          "internalType": "uint256",
          "name": "amount",
          "type": "uint256"
        }
      ],
      "name": "approve",
      "outputs": [
        {
          "internalType": "bool",
          "name": "",
          "type": "bool"
        }
      ],
      "stateMutability": "nonpayable",
      "type": "function"
    },
    {
      "inputs": [
        {
          "internalType": "address",
          "name": "account",
          "type": "address"
        }
      ],
      "name": "balanceOf",
      "outputs": [
        {
          "internalType": "uint256",
          "name": "",
          "type": "uint256"
        }
      ],
      "stateMutability": "view",
      "type": "function"
    },
    {
      "inputs": [],
      "name": "decimals",
      "outputs": [
        {
          "internalType": "uint8",
          "name": "",
          "type": "uint8"
        }
      ],
      "stateMutability": "view",
      "type": "function"
    },
    {
      "inputs": [
        {
          "internalType": "address",
          "name": "spender",
          "type": "address"
        },
        {
          "internalType": "uint256",
          "name": "subtractedValue",
          "type": "uint256"
        }
      ],
      "name": "decreaseAllowance",
      "outputs": [
        {
          "internalType": "bool",
          "name": "",
          "type": "bool"
        }
      ],
      "stateMutability": "nonpayable",
      "type": "function"
    },
    {
      "inputs": [
        {
          "internalType": "address",
          "name": "",
          "type": "address"
        }
      ],
      "name": "discountFactors",
      "outputs": [
        {
          "internalType": "uint256",
          "name": "",
          "type": "uint256"
        }
      ],
      "stateMutability": "view",
      "type": "function"
    },
    {
      "inputs": [],
      "name": "gcoinValue",
      "outputs": [
        {
          "internalType": "uint256",
          "name": "",
          "type": "uint256"
        }
      ],
      "stateMutability": "view",
      "type": "function"
    },
    {
      "inputs": [
        {
          "internalType": "address",
          "name": "spender",
          "type": "address"
        },
        {
          "internalType": "uint256",
          "name": "addedValue",
          "type": "uint256"
        }
      ],
      "name": "increaseAllowance",
      "outputs": [
        {
          "internalType": "bool",
          "name": "",
          "type": "bool"
        }
      ],
      "stateMutability": "nonpayable",
      "type": "function"
    },
    {
      "inputs": [],
      "name": "mintingFee",
      "outputs": [
        {
          "internalType": "uint256",
          "name": "",
          "type": "uint256"
        }
      ],
      "stateMutability": "view",
      "type": "function"
    },
    {
      "inputs": [],
      "name": "name",
      "outputs": [
        {
          "internalType": "string",
          "name": "",
          "type": "string"
        }
      ],
      "stateMutability": "view",
      "type": "function"
    },
    {
      "inputs": [],
      "name": "owner",
      "outputs": [
        {
          "internalType": "address",
          "name": "",
          "type": "address"
        }
      ],
      "stateMutability": "view",
      "type": "function"
    },
    {
      "inputs": [
        {
          "internalType": "address",
          "name": "",
          "type": "address"
        }
      ],
      "name": "priceFeeds",
      "outputs": [
        {
          "internalType": "contract AggregatorV3Interface",
          "name": "",
          "type": "address"
        }
      ],
      "stateMutability": "view",
      "type": "function"
    },
    {
      "inputs": [],
      "name": "renounceOwnership",
      "outputs": [],
      "stateMutability": "nonpayable",
      "type": "function"
    },
    {
      "inputs": [],
      "name": "stableCoin",
      "outputs": [
        {
          "internalType": "contract ERC20",
          "name": "",
          "type": "address"
        }
      ],
      "stateMutability": "view",
      "type": "function"
    },
    {
      "inputs": [],
      "name": "stableCoinDecimals",
      "outputs": [
        {
          "internalType": "uint256",
          "name": "",
          "type": "uint256"
        }
      ],
      "stateMutability": "view",
      "type": "function"
    },
    {
      "inputs": [],
      "name": "symbol",
      "outputs": [
        {
          "internalType": "string",
          "name": "",
          "type": "string"
        }
      ],
      "stateMutability": "view",
      "type": "function"
    },
    {
      "inputs": [],
      "name": "totalSupply",
      "outputs": [
        {
          "internalType": "uint256",
          "name": "",
          "type": "uint256"
        }
      ],
      "stateMutability": "view",
      "type": "function"
    },
    {
      "inputs": [
        {
          "internalType": "address",
          "name": "to",
          "type": "address"
        },
        {
          "internalType": "uint256",
          "name": "amount",
          "type": "uint256"
        }
      ],
      "name": "transfer",
      "outputs": [
        {
          "internalType": "bool",
          "name": "",
          "type": "bool"
        }
      ],
      "stateMutability": "nonpayable",
      "type": "function"
    },
    {
      "inputs": [
        {
          "internalType": "address",
          "name": "from",
          "type": "address"
        },
        {
          "internalType": "address",
          "name": "to",
          "type": "address"
        },
        {
          "internalType": "uint256",
          "name": "amount",
          "type": "uint256"
        }
      ],
      "name": "transferFrom",
      "outputs": [
        {
          "internalType": "bool",
          "name": "",
          "type": "bool"
        }
      ],
      "stateMutability": "nonpayable",
      "type": "function"
    },
    {
      "inputs": [
        {
          "internalType": "address",
          "name": "newOwner",
          "type": "address"
        }
      ],
      "name": "transferOwnership",
      "outputs": [],
      "stateMutability": "nonpayable",
      "type": "function"
    },
    {
      "inputs": [
        {
          "internalType": "address",
          "name": "token",
          "type": "address"
        },
        {
          "internalType": "address",
          "name": "priceFeed",
          "type": "address"
        }
      ],
      "name": "addTokenPriceFeed",
      "outputs": [],
      "stateMutability": "nonpayable",
      "type": "function"
    },
    {
      "inputs": [
        {
          "internalType": "address",
          "name": "token",
          "type": "address"
        },
        {
          "internalType": "uint256",
          "name": "discount",
          "type": "uint256"
        }
      ],
      "name": "setDiscountFactor",
      "outputs": [],
      "stateMutability": "nonpayable",
      "type": "function"
    },
    {
      "inputs": [
        {
          "internalType": "uint256",
          "name": "amount",
          "type": "uint256"
        }
      ],
      "name": "stableCoinToGCoin",
      "outputs": [],
      "stateMutability": "nonpayable",
      "type": "function"
    },
    {
      "inputs": [
        {
          "internalType": "uint256",
          "name": "amount",
          "type": "uint256"
        },
        {
          "internalType": "address",
          "name": "token",
          "type": "address"
        }
      ],
      "name": "tokenToGCoin",
      "outputs": [],
      "stateMutability": "payable",
      "type": "function"
    },
    {
      "inputs": [],
      "name": "getGCoinValue",
      "outputs": [
        {
          "internalType": "uint256",
          "name": "",
          "type": "uint256"
        }
      ],
      "stateMutability": "view",
      "type": "function"
    },
    {
      "inputs": [],
      "name": "updateGCoinValue",
      "outputs": [],
      "stateMutability": "nonpayable",
      "type": "function"
    }
  ],
  "bytecode": "0x608060405260016008553480156200001657600080fd5b50604051620031ee380380620031ee83398181016040528101906200003c919062000364565b6040518060400160405280600581526020017f47436f696e0000000000000000000000000000000000000000000000000000008152506040518060400160405280600281526020017f47430000000000000000000000000000000000000000000000000000000000008152508160039081620000b9919062000625565b508060049081620000cb919062000625565b505050620000ee620000e26200022c60201b60201c565b6200023460201b60201c565b81600760006101000a81548173ffffffffffffffffffffffffffffffffffffffff021916908373ffffffffffffffffffffffffffffffffffffffff16021790555080600660006101000a81548173ffffffffffffffffffffffffffffffffffffffff021916908373ffffffffffffffffffffffffffffffffffffffff160217905550600760009054906101000a900473ffffffffffffffffffffffffffffffffffffffff1673ffffffffffffffffffffffffffffffffffffffff1663313ce5676040518163ffffffff1660e01b8152600401602060405180830381865afa158015620001de573d6000803e3d6000fd5b505050506040513d601f19601f820116820180604052508101906200020491906200074a565b60ff16600a620002159190620008ff565b600981905550600954600a81905550505062000950565b600033905090565b6000600560009054906101000a900473ffffffffffffffffffffffffffffffffffffffff16905081600560006101000a81548173ffffffffffffffffffffffffffffffffffffffff021916908373ffffffffffffffffffffffffffffffffffffffff1602179055508173ffffffffffffffffffffffffffffffffffffffff168173ffffffffffffffffffffffffffffffffffffffff167f8be0079c531659141344cd1fd0a4f28419497f9722a3daafe3b4186f6b6457e060405160405180910390a35050565b600080fd5b600073ffffffffffffffffffffffffffffffffffffffff82169050919050565b60006200032c82620002ff565b9050919050565b6200033e816200031f565b81146200034a57600080fd5b50565b6000815190506200035e8162000333565b92915050565b600080604083850312156200037e576200037d620002fa565b5b60006200038e858286016200034d565b9250506020620003a1858286016200034d565b9150509250929050565b600081519050919050565b7f4e487b7100000000000000000000000000000000000000000000000000000000600052604160045260246000fd5b7f4e487b7100000000000000000000000000000000000000000000000000000000600052602260045260246000fd5b600060028204905060018216806200042d57607f821691505b602082108103620004435762000442620003e5565b5b50919050565b60008190508160005260206000209050919050565b60006020601f8301049050919050565b600082821b905092915050565b600060088302620004ad7fffffffffffffffffffffffffffffffffffffffffffffffffffffffffffffffff826200046e565b620004b986836200046e565b95508019841693508086168417925050509392505050565b6000819050919050565b6000819050919050565b60006200050662000500620004fa84620004d1565b620004db565b620004d1565b9050919050565b6000819050919050565b6200052283620004e5565b6200053a62000531826200050d565b8484546200047b565b825550505050565b600090565b6200055162000542565b6200055e81848462000517565b505050565b5b8181101562000586576200057a60008262000547565b60018101905062000564565b5050565b601f821115620005d5576200059f8162000449565b620005aa846200045e565b81016020851015620005ba578190505b620005d2620005c9856200045e565b83018262000563565b50505b505050565b600082821c905092915050565b6000620005fa60001984600802620005da565b1980831691505092915050565b6000620006158383620005e7565b9150826002028217905092915050565b6200063082620003ab565b67ffffffffffffffff8111156200064c576200064b620003b6565b5b62000658825462000414565b620006658282856200058a565b600060209050601f8311600181146200069d576000841562000688578287015190505b62000694858262000607565b86555062000704565b601f198416620006ad8662000449565b60005b82811015620006d757848901518255600182019150602085019450602081019050620006b0565b86831015620006f75784890151620006f3601f891682620005e7565b8355505b6001600288020188555050505b505050505050565b600060ff82169050919050565b62000724816200070c565b81146200073057600080fd5b50565b600081519050620007448162000719565b92915050565b600060208284031215620007635762000762620002fa565b5b6000620007738482850162000733565b91505092915050565b7f4e487b7100000000000000000000000000000000000000000000000000000000600052601160045260246000fd5b60008160011c9050919050565b6000808291508390505b60018511156200080a57808604811115620007e257620007e16200077c565b5b6001851615620007f25780820291505b80810290506200080285620007ab565b9450620007c2565b94509492505050565b600082620008255760019050620008f8565b81620008355760009050620008f8565b81600181146200084e576002811462000859576200088f565b6001915050620008f8565b60ff8411156200086e576200086d6200077c565b5b8360020a9150848211156200088857620008876200077c565b5b50620008f8565b5060208310610133831016604e8410600b8410161715620008c95782820a905083811115620008c357620008c26200077c565b5b620008f8565b620008d88484846001620007b8565b92509050818404811115620008f257620008f16200077c565b5b81810290505b9392505050565b60006200090c82620004d1565b91506200091983620004d1565b9250620009487fffffffffffffffffffffffffffffffffffffffffffffffffffffffffffffffff848462000813565b905092915050565b61288e80620009606000396000f3fe6080604052600436106101815760003560e01c806370a08231116100d15780639dcb511a1161008a578063d2535c2d11610064578063d2535c2d1461058d578063dd62ed3e146105b6578063f2fde38b146105f3578063f89134231461061c57610181565b80639dcb511a146104d6578063a457c2d714610513578063a9059cbb1461055057610181565b806370a08231146103d8578063715018a6146104155780638da5cb5b1461042c5780638e23cc861461045757806395d89b4114610480578063992642e5146104ab57610181565b8063313ce5671161013e5780633a47355a116101185780633a47355a14610329578063471468cd146103545780635a64ad9514610370578063613e78711461039b57610181565b8063313ce567146102aa57806335bbba87146102d557806339509351146102ec57610181565b806306fdde0314610186578063095ea7b3146101b1578063166ee767146101ee57806318160ddd1461021757806323b872dd1461024257806324e1c98a1461027f575b600080fd5b34801561019257600080fd5b5061019b610647565b6040516101a89190611b18565b60405180910390f35b3480156101bd57600080fd5b506101d860048036038101906101d39190611bd3565b6106d9565b6040516101e59190611c2e565b60405180910390f35b3480156101fa57600080fd5b5061021560048036038101906102109190611c49565b6106fc565b005b34801561022357600080fd5b5061022c610786565b6040516102399190611c98565b60405180910390f35b34801561024e57600080fd5b5061026960048036038101906102649190611cb3565b610790565b6040516102769190611c2e565b60405180910390f35b34801561028b57600080fd5b506102946107bf565b6040516102a19190611c98565b60405180910390f35b3480156102b657600080fd5b506102bf6107c9565b6040516102cc9190611d22565b60405180910390f35b3480156102e157600080fd5b506102ea6107d2565b005b3480156102f857600080fd5b50610313600480360381019061030e9190611bd3565b610813565b6040516103209190611c2e565b60405180910390f35b34801561033557600080fd5b5061033e61084a565b60405161034b9190611c98565b60405180910390f35b61036e60048036038101906103699190611d3d565b610850565b005b34801561037c57600080fd5b50610385610c10565b6040516103929190611c98565b60405180910390f35b3480156103a757600080fd5b506103c260048036038101906103bd9190611d7d565b610c16565b6040516103cf9190611c98565b60405180910390f35b3480156103e457600080fd5b506103ff60048036038101906103fa9190611d7d565b610c2e565b60405161040c9190611c98565b60405180910390f35b34801561042157600080fd5b5061042a610c76565b005b34801561043857600080fd5b50610441610c8a565b60405161044e9190611db9565b60405180910390f35b34801561046357600080fd5b5061047e60048036038101906104799190611dd4565b610cb4565b005b34801561048c57600080fd5b50610495610eab565b6040516104a29190611b18565b60405180910390f35b3480156104b757600080fd5b506104c0610f3d565b6040516104cd9190611e60565b60405180910390f35b3480156104e257600080fd5b506104fd60048036038101906104f89190611d7d565b610f63565b60405161050a9190611e9c565b60405180910390f35b34801561051f57600080fd5b5061053a60048036038101906105359190611bd3565b610f96565b6040516105479190611c2e565b60405180910390f35b34801561055c57600080fd5b5061057760048036038101906105729190611bd3565b61100d565b6040516105849190611c2e565b60405180910390f35b34801561059957600080fd5b506105b460048036038101906105af9190611bd3565b611030565b005b3480156105c257600080fd5b506105dd60048036038101906105d89190611c49565b611080565b6040516105ea9190611c98565b60405180910390f35b3480156105ff57600080fd5b5061061a60048036038101906106159190611d7d565b611107565b005b34801561062857600080fd5b5061063161118a565b60405161063e9190611c98565b60405180910390f35b60606003805461065690611ee6565b80601f016020809104026020016040519081016040528092919081815260200182805461068290611ee6565b80156106cf5780601f106106a4576101008083540402835291602001916106cf565b820191906000526020600020905b8154815290600101906020018083116106b257829003601f168201915b5050505050905090565b6000806106e4611190565b90506106f1818585611198565b600191505092915050565b610704611361565b80600b60008473ffffffffffffffffffffffffffffffffffffffff1673ffffffffffffffffffffffffffffffffffffffff16815260200190815260200160002060006101000a81548173ffffffffffffffffffffffffffffffffffffffff021916908373ffffffffffffffffffffffffffffffffffffffff1602179055505050565b6000600254905090565b60008061079b611190565b90506107a88582856113df565b6107b385858561146b565b60019150509392505050565b6000600a54905090565b60006012905090565b6107da611361565b6000610807600760009054906101000a900473ffffffffffffffffffffffffffffffffffffffff166116e1565b905080600a8190555050565b60008061081e611190565b905061083f8185856108308589611080565b61083a9190611f46565b611198565b600191505092915050565b60095481565b600073ffffffffffffffffffffffffffffffffffffffff168173ffffffffffffffffffffffffffffffffffffffff16036109ab576000349050600061089560006116e1565b905060006108c06009546108b2848661183690919063ffffffff16565b61184c90919063ffffffff16565b905060006109356064610927600c60008073ffffffffffffffffffffffffffffffffffffffff1673ffffffffffffffffffffffffffffffffffffffff1681526020019081526020016000205460646109189190611f7a565b8561183690919063ffffffff16565b61184c90919063ffffffff16565b90506000610995600854606461094b9190611f46565b6109876064610979600a5461096b6009548961183690919063ffffffff16565b61184c90919063ffffffff16565b61183690919063ffffffff16565b61184c90919063ffffffff16565b90506109a13382611862565b5050505050610c0c565b60008173ffffffffffffffffffffffffffffffffffffffff1663dd62ed3e33306040518363ffffffff1660e01b81526004016109e8929190611fae565b602060405180830381865afa158015610a05573d6000803e3d6000fd5b505050506040513d601f19601f82011682018060405250810190610a299190611fec565b905082811015610a6e576040517f08c379a0000000000000000000000000000000000000000000000000000000008152600401610a6590612065565b60405180910390fd5b6000610a79836116e1565b90506000610aa4600954610a96848861183690919063ffffffff16565b61184c90919063ffffffff16565b90506000610b196064610b0b600c60008973ffffffffffffffffffffffffffffffffffffffff1673ffffffffffffffffffffffffffffffffffffffff168152602001908152602001600020546064610afc9190611f7a565b8561183690919063ffffffff16565b61184c90919063ffffffff16565b90506000610b796008546064610b2f9190611f46565b610b6b6064610b5d600a54610b4f6009548961183690919063ffffffff16565b61184c90919063ffffffff16565b61183690919063ffffffff16565b61184c90919063ffffffff16565b90508573ffffffffffffffffffffffffffffffffffffffff166323b872dd33308a6040518463ffffffff1660e01b8152600401610bb893929190612085565b6020604051808303816000875af1158015610bd7573d6000803e3d6000fd5b505050506040513d601f19601f82011682018060405250810190610bfb91906120e8565b50610c063382611862565b50505050505b5050565b60085481565b600c6020528060005260406000206000915090505481565b60008060008373ffffffffffffffffffffffffffffffffffffffff1673ffffffffffffffffffffffffffffffffffffffff168152602001908152602001600020549050919050565b610c7e611361565b610c8860006119b8565b565b6000600560009054906101000a900473ffffffffffffffffffffffffffffffffffffffff16905090565b6000600760009054906101000a900473ffffffffffffffffffffffffffffffffffffffff1673ffffffffffffffffffffffffffffffffffffffff1663dd62ed3e33306040518363ffffffff1660e01b8152600401610d13929190611fae565b602060405180830381865afa158015610d30573d6000803e3d6000fd5b505050506040513d601f19601f82011682018060405250810190610d549190611fec565b905081811015610d99576040517f08c379a0000000000000000000000000000000000000000000000000000000008152600401610d9090612065565b60405180910390fd5b6000610df76008546064610dad9190611f46565b610de96064610ddb600a54610dcd6009548a61183690919063ffffffff16565b61184c90919063ffffffff16565b61183690919063ffffffff16565b61184c90919063ffffffff16565b9050600760009054906101000a900473ffffffffffffffffffffffffffffffffffffffff1673ffffffffffffffffffffffffffffffffffffffff166323b872dd3330866040518463ffffffff1660e01b8152600401610e5893929190612085565b6020604051808303816000875af1158015610e77573d6000803e3d6000fd5b505050506040513d601f19601f82011682018060405250810190610e9b91906120e8565b50610ea63382611862565b505050565b606060048054610eba90611ee6565b80601f0160208091040260200160405190810160405280929190818152602001828054610ee690611ee6565b8015610f335780601f10610f0857610100808354040283529160200191610f33565b820191906000526020600020905b815481529060010190602001808311610f1657829003601f168201915b5050505050905090565b600760009054906101000a900473ffffffffffffffffffffffffffffffffffffffff1681565b600b6020528060005260406000206000915054906101000a900473ffffffffffffffffffffffffffffffffffffffff1681565b600080610fa1611190565b90506000610faf8286611080565b905083811015610ff4576040517f08c379a0000000000000000000000000000000000000000000000000000000008152600401610feb90612187565b60405180910390fd5b6110018286868403611198565b60019250505092915050565b600080611018611190565b905061102581858561146b565b600191505092915050565b611038611361565b80600c60008473ffffffffffffffffffffffffffffffffffffffff1673ffffffffffffffffffffffffffffffffffffffff168152602001908152602001600020819055505050565b6000600160008473ffffffffffffffffffffffffffffffffffffffff1673ffffffffffffffffffffffffffffffffffffffff16815260200190815260200160002060008373ffffffffffffffffffffffffffffffffffffffff1673ffffffffffffffffffffffffffffffffffffffff16815260200190815260200160002054905092915050565b61110f611361565b600073ffffffffffffffffffffffffffffffffffffffff168173ffffffffffffffffffffffffffffffffffffffff160361117e576040517f08c379a000000000000000000000000000000000000000000000000000000000815260040161117590612219565b60405180910390fd5b611187816119b8565b50565b600a5481565b600033905090565b600073ffffffffffffffffffffffffffffffffffffffff168373ffffffffffffffffffffffffffffffffffffffff1603611207576040517f08c379a00000000000000000000000000000000000000000000000000000000081526004016111fe906122ab565b60405180910390fd5b600073ffffffffffffffffffffffffffffffffffffffff168273ffffffffffffffffffffffffffffffffffffffff1603611276576040517f08c379a000000000000000000000000000000000000000000000000000000000815260040161126d9061233d565b60405180910390fd5b80600160008573ffffffffffffffffffffffffffffffffffffffff1673ffffffffffffffffffffffffffffffffffffffff16815260200190815260200160002060008473ffffffffffffffffffffffffffffffffffffffff1673ffffffffffffffffffffffffffffffffffffffff168152602001908152602001600020819055508173ffffffffffffffffffffffffffffffffffffffff168373ffffffffffffffffffffffffffffffffffffffff167f8c5be1e5ebec7d5bd14f71427d1e84f3dd0314c0f7b2291e5b200ac8c7c3b925836040516113549190611c98565b60405180910390a3505050565b611369611190565b73ffffffffffffffffffffffffffffffffffffffff16611387610c8a565b73ffffffffffffffffffffffffffffffffffffffff16146113dd576040517f08c379a00000000000000000000000000000000000000000000000000000000081526004016113d4906123a9565b60405180910390fd5b565b60006113eb8484611080565b90507fffffffffffffffffffffffffffffffffffffffffffffffffffffffffffffffff81146114655781811015611457576040517f08c379a000000000000000000000000000000000000000000000000000000000815260040161144e90612415565b60405180910390fd5b6114648484848403611198565b5b50505050565b600073ffffffffffffffffffffffffffffffffffffffff168373ffffffffffffffffffffffffffffffffffffffff16036114da576040517f08c379a00000000000000000000000000000000000000000000000000000000081526004016114d1906124a7565b60405180910390fd5b600073ffffffffffffffffffffffffffffffffffffffff168273ffffffffffffffffffffffffffffffffffffffff1603611549576040517f08c379a000000000000000000000000000000000000000000000000000000000815260040161154090612539565b60405180910390fd5b611554838383611a7e565b60008060008573ffffffffffffffffffffffffffffffffffffffff1673ffffffffffffffffffffffffffffffffffffffff168152602001908152602001600020549050818110156115da576040517f08c379a00000000000000000000000000000000000000000000000000000000081526004016115d1906125cb565b60405180910390fd5b8181036000808673ffffffffffffffffffffffffffffffffffffffff1673ffffffffffffffffffffffffffffffffffffffff16815260200190815260200160002081905550816000808573ffffffffffffffffffffffffffffffffffffffff1673ffffffffffffffffffffffffffffffffffffffff168152602001908152602001600020600082825401925050819055508273ffffffffffffffffffffffffffffffffffffffff168473ffffffffffffffffffffffffffffffffffffffff167fddf252ad1be2c89b69c2b068fc378daa952ba7f163c4a11628f55a4df523b3ef846040516116c89190611c98565b60405180910390a36116db848484611a83565b50505050565b600080600b60008473ffffffffffffffffffffffffffffffffffffffff1673ffffffffffffffffffffffffffffffffffffffff16815260200190815260200160002060009054906101000a900473ffffffffffffffffffffffffffffffffffffffff169050600073ffffffffffffffffffffffffffffffffffffffff168173ffffffffffffffffffffffffffffffffffffffff16036117b5576040517f08c379a00000000000000000000000000000000000000000000000000000000081526004016117ac90612637565b60405180910390fd5b60008173ffffffffffffffffffffffffffffffffffffffff1663feaf968c6040518163ffffffff1660e01b815260040160a060405180830381865afa158015611802573d6000803e3d6000fd5b505050506040513d601f19601f8201168201806040525081019061182691906126cf565b5050509150508092505050919050565b60008183611844919061274a565b905092915050565b6000818361185a91906127bb565b905092915050565b600073ffffffffffffffffffffffffffffffffffffffff168273ffffffffffffffffffffffffffffffffffffffff16036118d1576040517f08c379a00000000000000000000000000000000000000000000000000000000081526004016118c890612838565b60405180910390fd5b6118dd60008383611a7e565b80600260008282546118ef9190611f46565b92505081905550806000808473ffffffffffffffffffffffffffffffffffffffff1673ffffffffffffffffffffffffffffffffffffffff168152602001908152602001600020600082825401925050819055508173ffffffffffffffffffffffffffffffffffffffff16600073ffffffffffffffffffffffffffffffffffffffff167fddf252ad1be2c89b69c2b068fc378daa952ba7f163c4a11628f55a4df523b3ef836040516119a09190611c98565b60405180910390a36119b460008383611a83565b5050565b6000600560009054906101000a900473ffffffffffffffffffffffffffffffffffffffff16905081600560006101000a81548173ffffffffffffffffffffffffffffffffffffffff021916908373ffffffffffffffffffffffffffffffffffffffff1602179055508173ffffffffffffffffffffffffffffffffffffffff168173ffffffffffffffffffffffffffffffffffffffff167f8be0079c531659141344cd1fd0a4f28419497f9722a3daafe3b4186f6b6457e060405160405180910390a35050565b505050565b505050565b600081519050919050565b600082825260208201905092915050565b60005b83811015611ac2578082015181840152602081019050611aa7565b60008484015250505050565b6000601f19601f8301169050919050565b6000611aea82611a88565b611af48185611a93565b9350611b04818560208601611aa4565b611b0d81611ace565b840191505092915050565b60006020820190508181036000830152611b328184611adf565b905092915050565b600080fd5b600073ffffffffffffffffffffffffffffffffffffffff82169050919050565b6000611b6a82611b3f565b9050919050565b611b7a81611b5f565b8114611b8557600080fd5b50565b600081359050611b9781611b71565b92915050565b6000819050919050565b611bb081611b9d565b8114611bbb57600080fd5b50565b600081359050611bcd81611ba7565b92915050565b60008060408385031215611bea57611be9611b3a565b5b6000611bf885828601611b88565b9250506020611c0985828601611bbe565b9150509250929050565b60008115159050919050565b611c2881611c13565b82525050565b6000602082019050611c436000830184611c1f565b92915050565b60008060408385031215611c6057611c5f611b3a565b5b6000611c6e85828601611b88565b9250506020611c7f85828601611b88565b9150509250929050565b611c9281611b9d565b82525050565b6000602082019050611cad6000830184611c89565b92915050565b600080600060608486031215611ccc57611ccb611b3a565b5b6000611cda86828701611b88565b9350506020611ceb86828701611b88565b9250506040611cfc86828701611bbe565b9150509250925092565b600060ff82169050919050565b611d1c81611d06565b82525050565b6000602082019050611d376000830184611d13565b92915050565b60008060408385031215611d5457611d53611b3a565b5b6000611d6285828601611bbe565b9250506020611d7385828601611b88565b9150509250929050565b600060208284031215611d9357611d92611b3a565b5b6000611da184828501611b88565b91505092915050565b611db381611b5f565b82525050565b6000602082019050611dce6000830184611daa565b92915050565b600060208284031215611dea57611de9611b3a565b5b6000611df884828501611bbe565b91505092915050565b6000819050919050565b6000611e26611e21611e1c84611b3f565b611e01565b611b3f565b9050919050565b6000611e3882611e0b565b9050919050565b6000611e4a82611e2d565b9050919050565b611e5a81611e3f565b82525050565b6000602082019050611e756000830184611e51565b92915050565b6000611e8682611e2d565b9050919050565b611e9681611e7b565b82525050565b6000602082019050611eb16000830184611e8d565b92915050565b7f4e487b7100000000000000000000000000000000000000000000000000000000600052602260045260246000fd5b60006002820490506001821680611efe57607f821691505b602082108103611f1157611f10611eb7565b5b50919050565b7f4e487b7100000000000000000000000000000000000000000000000000000000600052601160045260246000fd5b6000611f5182611b9d565b9150611f5c83611b9d565b9250828201905080821115611f7457611f73611f17565b5b92915050565b6000611f8582611b9d565b9150611f9083611b9d565b9250828203905081811115611fa857611fa7611f17565b5b92915050565b6000604082019050611fc36000830185611daa565b611fd06020830184611daa565b9392505050565b600081519050611fe681611ba7565b92915050565b60006020828403121561200257612001611b3a565b5b600061201084828501611fd7565b91505092915050565b7f416d6f756e74206e6f7420616c6c6f7765640000000000000000000000000000600082015250565b600061204f601283611a93565b915061205a82612019565b602082019050919050565b6000602082019050818103600083015261207e81612042565b9050919050565b600060608201905061209a6000830186611daa565b6120a76020830185611daa565b6120b46040830184611c89565b949350505050565b6120c581611c13565b81146120d057600080fd5b50565b6000815190506120e2816120bc565b92915050565b6000602082840312156120fe576120fd611b3a565b5b600061210c848285016120d3565b91505092915050565b7f45524332303a2064656372656173656420616c6c6f77616e63652062656c6f7760008201527f207a65726f000000000000000000000000000000000000000000000000000000602082015250565b6000612171602583611a93565b915061217c82612115565b604082019050919050565b600060208201905081810360008301526121a081612164565b9050919050565b7f4f776e61626c653a206e6577206f776e657220697320746865207a65726f206160008201527f6464726573730000000000000000000000000000000000000000000000000000602082015250565b6000612203602683611a93565b915061220e826121a7565b604082019050919050565b60006020820190508181036000830152612232816121f6565b9050919050565b7f45524332303a20617070726f76652066726f6d20746865207a65726f2061646460008201527f7265737300000000000000000000000000000000000000000000000000000000602082015250565b6000612295602483611a93565b91506122a082612239565b604082019050919050565b600060208201905081810360008301526122c481612288565b9050919050565b7f45524332303a20617070726f766520746f20746865207a65726f20616464726560008201527f7373000000000000000000000000000000000000000000000000000000000000602082015250565b6000612327602283611a93565b9150612332826122cb565b604082019050919050565b600060208201905081810360008301526123568161231a565b9050919050565b7f4f776e61626c653a2063616c6c6572206973206e6f7420746865206f776e6572600082015250565b6000612393602083611a93565b915061239e8261235d565b602082019050919050565b600060208201905081810360008301526123c281612386565b9050919050565b7f45524332303a20696e73756666696369656e7420616c6c6f77616e6365000000600082015250565b60006123ff601d83611a93565b915061240a826123c9565b602082019050919050565b6000602082019050818103600083015261242e816123f2565b9050919050565b7f45524332303a207472616e736665722066726f6d20746865207a65726f20616460008201527f6472657373000000000000000000000000000000000000000000000000000000602082015250565b6000612491602583611a93565b915061249c82612435565b604082019050919050565b600060208201905081810360008301526124c081612484565b9050919050565b7f45524332303a207472616e7366657220746f20746865207a65726f206164647260008201527f6573730000000000000000000000000000000000000000000000000000000000602082015250565b6000612523602383611a93565b915061252e826124c7565b604082019050919050565b6000602082019050818103600083015261255281612516565b9050919050565b7f45524332303a207472616e7366657220616d6f756e742065786365656473206260008201527f616c616e63650000000000000000000000000000000000000000000000000000602082015250565b60006125b5602683611a93565b91506125c082612559565b604082019050919050565b600060208201905081810360008301526125e4816125a8565b9050919050565b7f50726963652066656564206e6f7420666f756e6420666f7220746f6b656e0000600082015250565b6000612621601e83611a93565b915061262c826125eb565b602082019050919050565b6000602082019050818103600083015261265081612614565b9050919050565b600069ffffffffffffffffffff82169050919050565b61267681612657565b811461268157600080fd5b50565b6000815190506126938161266d565b92915050565b6000819050919050565b6126ac81612699565b81146126b757600080fd5b50565b6000815190506126c9816126a3565b92915050565b600080600080600060a086880312156126eb576126ea611b3a565b5b60006126f988828901612684565b955050602061270a888289016126ba565b945050604061271b88828901611fd7565b935050606061272c88828901611fd7565b925050608061273d88828901612684565b9150509295509295909350565b600061275582611b9d565b915061276083611b9d565b925082820261276e81611b9d565b9150828204841483151761278557612784611f17565b5b5092915050565b7f4e487b7100000000000000000000000000000000000000000000000000000000600052601260045260246000fd5b60006127c682611b9d565b91506127d183611b9d565b9250826127e1576127e061278c565b5b828204905092915050565b7f45524332303a206d696e7420746f20746865207a65726f206164647265737300600082015250565b6000612822601f83611a93565b915061282d826127ec565b602082019050919050565b6000602082019050818103600083015261285181612815565b905091905056fea2646970667358221220d7861f03cbc57faad8af5e62145e6db0caeb602da1d9c71df453824781296d2964736f6c63430008130033",
  "immutableReferences": {},
  "source": "pragma solidity ^0.8.0;\n\nimport \"@openzeppelin/contracts/token/ERC20/ERC20.sol\";\nimport \"@openzeppelin/contracts/utils/math/SafeMath.sol\";\nimport \"@openzeppelin/contracts/access/Ownable.sol\";\nimport \"@chainlink/contracts/src/v0.8/interfaces/AggregatorV3Interface.sol\";\n\ncontract GCoin is ERC20, Ownable {\n    using SafeMath for uint256;\n\n    AggregatorV3Interface internal stableCoinPriceFeed;\n    ERC20 public stableCoin;\n\n    uint256 public mintingFee = 1; // 1% fee\n    uint256 public stableCoinDecimals;\n    uint256 public gcoinValue;\n    address constant ETHER = address(0);\n\n    mapping(address => AggregatorV3Interface) public priceFeeds;\n    mapping(address => uint256) public discountFactors;\n\n    constructor(\n        address _stableCoin,\n        address _stableCoinPriceFeed\n    ) ERC20(\"GCoin\", \"GC\") {\n        stableCoin = ERC20(_stableCoin);\n        stableCoinPriceFeed = AggregatorV3Interface(_stableCoinPriceFeed);\n        stableCoinDecimals = 10**uint256(stableCoin.decimals());\n        gcoinValue = stableCoinDecimals; // Initial value set to 1 stable coin\n    }\n\n    function addTokenPriceFeed(address token, address priceFeed) public onlyOwner {\n        priceFeeds[token] = AggregatorV3Interface(priceFeed);\n    }\n\n    function setDiscountFactor(address token, uint256 discount) public onlyOwner {\n        discountFactors[token] = discount;\n    }\n\n    function getLatestPrice(address token) private view returns (uint256) {\n        AggregatorV3Interface priceFeed = priceFeeds[token];\n        require(address(priceFeed) != address(0), \"Price feed not found for token\");\n        (, int256 price,,,) = priceFeed.latestRoundData();\n        return uint256(price);\n    }\n\n    function stableCoinToGCoin(uint256 amount) public {\n        uint256 allowance = stableCoin.allowance(msg.sender, address(this));\n        require(allowance >= amount, \"Amount not allowed\");\n\n        uint256 gcoinAmount = amount.mul(stableCoinDecimals).div(gcoinValue).mul(100).div(100 + mintingFee);\n        stableCoin.transferFrom(msg.sender, address(this), amount);\n        _mint(msg.sender, gcoinAmount);\n    }\n\n    function tokenToGCoin(uint256 amount, address token) public payable {\n        if (token == ETHER) {\n            uint256 ethAmount = msg.value;\n            uint256 ethPrice = getLatestPrice(ETHER);\n            uint256 ethAmountInStableCoin = ethAmount.mul(ethPrice).div(stableCoinDecimals);\n\n            uint256 discountedEthAmount = ethAmountInStableCoin.mul(100 - discountFactors[ETHER]).div(100);\n            uint256 gcoinAmount = discountedEthAmount.mul(stableCoinDecimals).div(gcoinValue).mul(100).div(100 + mintingFee);\n            _mint(msg.sender, gcoinAmount);\n        } else {\n            uint256 allowance = ERC20(token).allowance(msg.sender, address(this));\n            require(allowance >= amount, \"Amount not allowed\");\n\n            uint256 tokenPrice = getLatestPrice(token);\n            uint256 tokenAmountInStableCoin = amount.mul(tokenPrice).div(stableCoinDecimals);\n\n        uint256 discountedTokenAmount = tokenAmountInStableCoin.mul(100 - discountFactors[token]).div(100);\n        uint256 gcoinAmount = discountedTokenAmount.mul(stableCoinDecimals).div(gcoinValue).mul(100).div(100 + mintingFee);\n\n        ERC20(token).transferFrom(msg.sender, address(this), amount);\n        _mint(msg.sender, gcoinAmount);\n    }\n}\n\nfunction getGCoinValue() public view returns (uint256) {\n    return gcoinValue;\n}\n\nfunction updateGCoinValue() public onlyOwner {\n    uint256 chainlinkValue = getLatestPrice(address(stableCoin));\n    gcoinValue = chainlinkValue;\n}\n\n}\n",
  "sourcePath": "/Users/zhuming0828/Documents/projects/gcoin/contracts/GCoin.sol",
  "compiler": {
    "name": "solc",
    "version": "0.8.19+commit.7dd6d404.Emscripten.clang"
  },
  "schemaVersion": "3.4.13",
  "updatedAt": "2023-04-22T21:27:59.347Z",
  "devdoc": {
    "events": {
      "Approval(address,address,uint256)": {
        "details": "Emitted when the allowance of a `spender` for an `owner` is set by a call to {approve}. `value` is the new allowance."
      },
      "Transfer(address,address,uint256)": {
        "details": "Emitted when `value` tokens are moved from one account (`from`) to another (`to`). Note that `value` may be zero."
      }
    },
    "kind": "dev",
    "methods": {
      "allowance(address,address)": {
        "details": "See {IERC20-allowance}."
      },
      "approve(address,uint256)": {
        "details": "See {IERC20-approve}. NOTE: If `amount` is the maximum `uint256`, the allowance is not updated on `transferFrom`. This is semantically equivalent to an infinite approval. Requirements: - `spender` cannot be the zero address."
      },
      "balanceOf(address)": {
        "details": "See {IERC20-balanceOf}."
      },
      "decimals()": {
        "details": "Returns the number of decimals used to get its user representation. For example, if `decimals` equals `2`, a balance of `505` tokens should be displayed to a user as `5.05` (`505 / 10 ** 2`). Tokens usually opt for a value of 18, imitating the relationship between Ether and Wei. This is the value {ERC20} uses, unless this function is overridden; NOTE: This information is only used for _display_ purposes: it in no way affects any of the arithmetic of the contract, including {IERC20-balanceOf} and {IERC20-transfer}."
      },
      "decreaseAllowance(address,uint256)": {
        "details": "Atomically decreases the allowance granted to `spender` by the caller. This is an alternative to {approve} that can be used as a mitigation for problems described in {IERC20-approve}. Emits an {Approval} event indicating the updated allowance. Requirements: - `spender` cannot be the zero address. - `spender` must have allowance for the caller of at least `subtractedValue`."
      },
      "increaseAllowance(address,uint256)": {
        "details": "Atomically increases the allowance granted to `spender` by the caller. This is an alternative to {approve} that can be used as a mitigation for problems described in {IERC20-approve}. Emits an {Approval} event indicating the updated allowance. Requirements: - `spender` cannot be the zero address."
      },
      "name()": {
        "details": "Returns the name of the token."
      },
      "owner()": {
        "details": "Returns the address of the current owner."
      },
      "renounceOwnership()": {
        "details": "Leaves the contract without owner. It will not be possible to call `onlyOwner` functions anymore. Can only be called by the current owner. NOTE: Renouncing ownership will leave the contract without an owner, thereby removing any functionality that is only available to the owner."
      },
      "symbol()": {
        "details": "Returns the symbol of the token, usually a shorter version of the name."
      },
      "totalSupply()": {
        "details": "See {IERC20-totalSupply}."
      },
      "transfer(address,uint256)": {
        "details": "See {IERC20-transfer}. Requirements: - `to` cannot be the zero address. - the caller must have a balance of at least `amount`."
      },
      "transferFrom(address,address,uint256)": {
        "details": "See {IERC20-transferFrom}. Emits an {Approval} event indicating the updated allowance. This is not required by the EIP. See the note at the beginning of {ERC20}. NOTE: Does not update the allowance if the current allowance is the maximum `uint256`. Requirements: - `from` and `to` cannot be the zero address. - `from` must have a balance of at least `amount`. - the caller must have allowance for ``from``'s tokens of at least `amount`."
      },
      "transferOwnership(address)": {
        "details": "Transfers ownership of the contract to a new account (`newOwner`). Can only be called by the current owner."
      }
    },
    "version": 1
  },
  "userdoc": {
    "kind": "user",
    "methods": {},
    "version": 1
  }
}